{
  "address": "0x9fE46736679d2D9a65F0992F2272dE9f3c7fa6e0",
  "abi": [
    {
      "inputs": [
        {
          "internalType": "contract IVotes",
          "name": "_token",
          "type": "address"
        },
        {
          "internalType": "address",
          "name": "_automation",
          "type": "address"
        }
      ],
      "stateMutability": "nonpayable",
      "type": "constructor"
    },
    {
      "inputs": [],
      "name": "Empty",
      "type": "error"
    },
    {
      "anonymous": false,
      "inputs": [
        {
          "indexed": false,
          "internalType": "uint256",
          "name": "proposalId",
          "type": "uint256"
        }
      ],
      "name": "ProposalCanceled",
      "type": "event"
    },
    {
      "anonymous": false,
      "inputs": [
        {
          "indexed": false,
          "internalType": "uint256",
          "name": "proposalId",
          "type": "uint256"
        },
        {
          "indexed": false,
          "internalType": "address",
          "name": "proposer",
          "type": "address"
        },
        {
          "indexed": false,
          "internalType": "address[]",
          "name": "targets",
          "type": "address[]"
        },
        {
          "indexed": false,
          "internalType": "uint256[]",
          "name": "values",
          "type": "uint256[]"
        },
        {
          "indexed": false,
          "internalType": "string[]",
          "name": "signatures",
          "type": "string[]"
        },
        {
          "indexed": false,
          "internalType": "bytes[]",
          "name": "calldatas",
          "type": "bytes[]"
        },
        {
          "indexed": false,
          "internalType": "uint256",
          "name": "startBlock",
          "type": "uint256"
        },
        {
          "indexed": false,
          "internalType": "uint256",
          "name": "endBlock",
          "type": "uint256"
        },
        {
          "indexed": false,
          "internalType": "string",
          "name": "description",
          "type": "string"
        }
      ],
      "name": "ProposalCreated",
      "type": "event"
    },
    {
      "anonymous": false,
      "inputs": [
        {
          "indexed": false,
          "internalType": "uint256",
          "name": "proposalId",
          "type": "uint256"
        }
      ],
      "name": "ProposalExecuted",
      "type": "event"
    },
    {
      "anonymous": false,
      "inputs": [
        {
          "indexed": false,
          "internalType": "uint256",
          "name": "oldQuorumNumerator",
          "type": "uint256"
        },
        {
          "indexed": false,
          "internalType": "uint256",
          "name": "newQuorumNumerator",
          "type": "uint256"
        }
      ],
      "name": "QuorumNumeratorUpdated",
      "type": "event"
    },
    {
      "anonymous": false,
      "inputs": [
        {
          "indexed": true,
          "internalType": "address",
          "name": "voter",
          "type": "address"
        },
        {
          "indexed": false,
          "internalType": "uint256",
          "name": "proposalId",
          "type": "uint256"
        },
        {
          "indexed": false,
          "internalType": "uint8",
          "name": "support",
          "type": "uint8"
        },
        {
          "indexed": false,
          "internalType": "uint256",
          "name": "weight",
          "type": "uint256"
        },
        {
          "indexed": false,
          "internalType": "string",
          "name": "reason",
          "type": "string"
        }
      ],
      "name": "VoteCast",
      "type": "event"
    },
    {
      "anonymous": false,
      "inputs": [
        {
          "indexed": true,
          "internalType": "address",
          "name": "voter",
          "type": "address"
        },
        {
          "indexed": false,
          "internalType": "uint256",
          "name": "proposalId",
          "type": "uint256"
        },
        {
          "indexed": false,
          "internalType": "uint8",
          "name": "support",
          "type": "uint8"
        },
        {
          "indexed": false,
          "internalType": "uint256",
          "name": "weight",
          "type": "uint256"
        },
        {
          "indexed": false,
          "internalType": "string",
          "name": "reason",
          "type": "string"
        },
        {
          "indexed": false,
          "internalType": "bytes",
          "name": "params",
          "type": "bytes"
        }
      ],
      "name": "VoteCastWithParams",
      "type": "event"
    },
    {
      "inputs": [],
      "name": "BALLOT_TYPEHASH",
      "outputs": [
        {
          "internalType": "bytes32",
          "name": "",
          "type": "bytes32"
        }
      ],
      "stateMutability": "view",
      "type": "function"
    },
    {
      "inputs": [],
      "name": "COUNTING_MODE",
      "outputs": [
        {
          "internalType": "string",
          "name": "",
          "type": "string"
        }
      ],
      "stateMutability": "pure",
      "type": "function"
    },
    {
      "inputs": [],
      "name": "EXTENDED_BALLOT_TYPEHASH",
      "outputs": [
        {
          "internalType": "bytes32",
          "name": "",
          "type": "bytes32"
        }
      ],
      "stateMutability": "view",
      "type": "function"
    },
    {
      "inputs": [],
      "name": "automation",
      "outputs": [
        {
          "internalType": "address",
          "name": "",
          "type": "address"
        }
      ],
      "stateMutability": "view",
      "type": "function"
    },
    {
      "inputs": [
        {
          "internalType": "address[]",
          "name": "targets",
          "type": "address[]"
        },
        {
          "internalType": "uint256[]",
          "name": "values",
          "type": "uint256[]"
        },
        {
          "internalType": "bytes[]",
          "name": "calldatas",
          "type": "bytes[]"
        },
        {
          "internalType": "bytes32",
          "name": "descriptionHash",
          "type": "bytes32"
        }
      ],
      "name": "cancel",
      "outputs": [],
      "stateMutability": "nonpayable",
      "type": "function"
    },
    {
      "inputs": [
        {
          "internalType": "uint256",
          "name": "proposalId",
          "type": "uint256"
        },
        {
          "internalType": "uint8",
          "name": "support",
          "type": "uint8"
        }
      ],
      "name": "castVote",
      "outputs": [
        {
          "internalType": "uint256",
          "name": "",
          "type": "uint256"
        }
      ],
      "stateMutability": "nonpayable",
      "type": "function"
    },
    {
      "inputs": [
        {
          "internalType": "uint256",
          "name": "proposalId",
          "type": "uint256"
        },
        {
          "internalType": "uint8",
          "name": "support",
          "type": "uint8"
        },
        {
          "internalType": "uint8",
          "name": "v",
          "type": "uint8"
        },
        {
          "internalType": "bytes32",
          "name": "r",
          "type": "bytes32"
        },
        {
          "internalType": "bytes32",
          "name": "s",
          "type": "bytes32"
        }
      ],
      "name": "castVoteBySig",
      "outputs": [
        {
          "internalType": "uint256",
          "name": "",
          "type": "uint256"
        }
      ],
      "stateMutability": "nonpayable",
      "type": "function"
    },
    {
      "inputs": [
        {
          "internalType": "uint256",
          "name": "proposalId",
          "type": "uint256"
        },
        {
          "internalType": "uint8",
          "name": "support",
          "type": "uint8"
        },
        {
          "internalType": "string",
          "name": "reason",
          "type": "string"
        }
      ],
      "name": "castVoteWithReason",
      "outputs": [
        {
          "internalType": "uint256",
          "name": "",
          "type": "uint256"
        }
      ],
      "stateMutability": "nonpayable",
      "type": "function"
    },
    {
      "inputs": [
        {
          "internalType": "uint256",
          "name": "proposalId",
          "type": "uint256"
        },
        {
          "internalType": "uint8",
          "name": "support",
          "type": "uint8"
        },
        {
          "internalType": "string",
          "name": "reason",
          "type": "string"
        },
        {
          "internalType": "bytes",
          "name": "params",
          "type": "bytes"
        }
      ],
      "name": "castVoteWithReasonAndParams",
      "outputs": [
        {
          "internalType": "uint256",
          "name": "",
          "type": "uint256"
        }
      ],
      "stateMutability": "nonpayable",
      "type": "function"
    },
    {
      "inputs": [
        {
          "internalType": "uint256",
          "name": "proposalId",
          "type": "uint256"
        },
        {
          "internalType": "uint8",
          "name": "support",
          "type": "uint8"
        },
        {
          "internalType": "string",
          "name": "reason",
          "type": "string"
        },
        {
          "internalType": "bytes",
          "name": "params",
          "type": "bytes"
        },
        {
          "internalType": "uint8",
          "name": "v",
          "type": "uint8"
        },
        {
          "internalType": "bytes32",
          "name": "r",
          "type": "bytes32"
        },
        {
          "internalType": "bytes32",
          "name": "s",
          "type": "bytes32"
        }
      ],
      "name": "castVoteWithReasonAndParamsBySig",
      "outputs": [
        {
          "internalType": "uint256",
          "name": "",
          "type": "uint256"
        }
      ],
      "stateMutability": "nonpayable",
      "type": "function"
    },
    {
      "inputs": [],
      "name": "currentProposal",
      "outputs": [
        {
          "internalType": "uint256",
          "name": "proposalId",
          "type": "uint256"
        },
        {
          "internalType": "uint256",
          "name": "executionTime",
          "type": "uint256"
        },
        {
          "internalType": "bytes32",
          "name": "description",
          "type": "bytes32"
        }
      ],
      "stateMutability": "view",
      "type": "function"
    },
    {
      "inputs": [
        {
          "internalType": "address[]",
          "name": "targets",
          "type": "address[]"
        },
        {
          "internalType": "uint256[]",
          "name": "values",
          "type": "uint256[]"
        },
        {
          "internalType": "bytes[]",
          "name": "calldatas",
          "type": "bytes[]"
        },
        {
          "internalType": "bytes32",
          "name": "descriptionHash",
          "type": "bytes32"
        }
      ],
      "name": "execute",
      "outputs": [
        {
          "internalType": "uint256",
          "name": "",
          "type": "uint256"
        }
      ],
      "stateMutability": "payable",
      "type": "function"
    },
    {
      "inputs": [],
      "name": "executionDelay",
      "outputs": [
        {
          "internalType": "uint256",
          "name": "",
          "type": "uint256"
        }
      ],
      "stateMutability": "view",
      "type": "function"
    },
    {
      "inputs": [],
      "name": "getCurrentProposal",
      "outputs": [
        {
          "components": [
            {
              "internalType": "uint256",
              "name": "proposalId",
              "type": "uint256"
            },
            {
              "internalType": "uint256",
              "name": "executionTime",
              "type": "uint256"
            },
            {
              "internalType": "address[]",
              "name": "targets",
              "type": "address[]"
            },
            {
              "internalType": "uint256[]",
              "name": "values",
              "type": "uint256[]"
            },
            {
              "internalType": "bytes[]",
              "name": "calldatas",
              "type": "bytes[]"
            },
            {
              "internalType": "bytes32",
              "name": "description",
              "type": "bytes32"
            }
          ],
          "internalType": "struct IGovernance.CurrentProposal",
          "name": "",
          "type": "tuple"
        }
      ],
      "stateMutability": "view",
      "type": "function"
    },
    {
      "inputs": [
        {
          "internalType": "address",
          "name": "account",
          "type": "address"
        },
        {
          "internalType": "uint256",
          "name": "blockNumber",
          "type": "uint256"
        }
      ],
      "name": "getVotes",
      "outputs": [
        {
          "internalType": "uint256",
          "name": "",
          "type": "uint256"
        }
      ],
      "stateMutability": "view",
      "type": "function"
    },
    {
      "inputs": [
        {
          "internalType": "address",
          "name": "account",
          "type": "address"
        },
        {
          "internalType": "uint256",
          "name": "blockNumber",
          "type": "uint256"
        },
        {
          "internalType": "bytes",
          "name": "params",
          "type": "bytes"
        }
      ],
      "name": "getVotesWithParams",
      "outputs": [
        {
          "internalType": "uint256",
          "name": "",
          "type": "uint256"
        }
      ],
      "stateMutability": "view",
      "type": "function"
    },
    {
      "inputs": [
        {
          "internalType": "uint256",
          "name": "proposalId",
          "type": "uint256"
        },
        {
          "internalType": "address",
          "name": "account",
          "type": "address"
        }
      ],
      "name": "hasVoted",
      "outputs": [
        {
          "internalType": "bool",
          "name": "",
          "type": "bool"
        }
      ],
      "stateMutability": "view",
      "type": "function"
    },
    {
      "inputs": [
        {
          "internalType": "address[]",
          "name": "targets",
          "type": "address[]"
        },
        {
          "internalType": "uint256[]",
          "name": "values",
          "type": "uint256[]"
        },
        {
          "internalType": "bytes[]",
          "name": "calldatas",
          "type": "bytes[]"
        },
        {
          "internalType": "bytes32",
          "name": "descriptionHash",
          "type": "bytes32"
        }
      ],
      "name": "hashProposal",
      "outputs": [
        {
          "internalType": "uint256",
          "name": "",
          "type": "uint256"
        }
      ],
      "stateMutability": "pure",
      "type": "function"
    },
    {
      "inputs": [],
      "name": "isReadyToExecution",
      "outputs": [
        {
          "internalType": "bool",
          "name": "",
          "type": "bool"
        }
      ],
      "stateMutability": "view",
      "type": "function"
    },
    {
      "inputs": [],
      "name": "name",
      "outputs": [
        {
          "internalType": "string",
          "name": "",
          "type": "string"
        }
      ],
      "stateMutability": "view",
      "type": "function"
    },
    {
      "inputs": [
        {
          "internalType": "address",
          "name": "",
          "type": "address"
        },
        {
          "internalType": "address",
          "name": "",
          "type": "address"
        },
        {
          "internalType": "uint256[]",
          "name": "",
          "type": "uint256[]"
        },
        {
          "internalType": "uint256[]",
          "name": "",
          "type": "uint256[]"
        },
        {
          "internalType": "bytes",
          "name": "",
          "type": "bytes"
        }
      ],
      "name": "onERC1155BatchReceived",
      "outputs": [
        {
          "internalType": "bytes4",
          "name": "",
          "type": "bytes4"
        }
      ],
      "stateMutability": "nonpayable",
      "type": "function"
    },
    {
      "inputs": [
        {
          "internalType": "address",
          "name": "",
          "type": "address"
        },
        {
          "internalType": "address",
          "name": "",
          "type": "address"
        },
        {
          "internalType": "uint256",
          "name": "",
          "type": "uint256"
        },
        {
          "internalType": "uint256",
          "name": "",
          "type": "uint256"
        },
        {
          "internalType": "bytes",
          "name": "",
          "type": "bytes"
        }
      ],
      "name": "onERC1155Received",
      "outputs": [
        {
          "internalType": "bytes4",
          "name": "",
          "type": "bytes4"
        }
      ],
      "stateMutability": "nonpayable",
      "type": "function"
    },
    {
      "inputs": [
        {
          "internalType": "address",
          "name": "",
          "type": "address"
        },
        {
          "internalType": "address",
          "name": "",
          "type": "address"
        },
        {
          "internalType": "uint256",
          "name": "",
          "type": "uint256"
        },
        {
          "internalType": "bytes",
          "name": "",
          "type": "bytes"
        }
      ],
      "name": "onERC721Received",
      "outputs": [
        {
          "internalType": "bytes4",
          "name": "",
          "type": "bytes4"
        }
      ],
      "stateMutability": "nonpayable",
      "type": "function"
    },
    {
      "inputs": [
        {
          "internalType": "uint256",
          "name": "proposalId",
          "type": "uint256"
        }
      ],
      "name": "proposalDeadline",
      "outputs": [
        {
          "internalType": "uint256",
          "name": "",
          "type": "uint256"
        }
      ],
      "stateMutability": "view",
      "type": "function"
    },
    {
      "inputs": [
        {
          "internalType": "uint256",
          "name": "proposalId",
          "type": "uint256"
        }
      ],
      "name": "proposalSnapshot",
      "outputs": [
        {
          "internalType": "uint256",
          "name": "",
          "type": "uint256"
        }
      ],
      "stateMutability": "view",
      "type": "function"
    },
    {
      "inputs": [],
      "name": "proposalThreshold",
      "outputs": [
        {
          "internalType": "uint256",
          "name": "",
          "type": "uint256"
        }
      ],
      "stateMutability": "view",
      "type": "function"
    },
    {
      "inputs": [
        {
          "internalType": "uint256",
          "name": "proposalId",
          "type": "uint256"
        }
      ],
      "name": "proposalVotes",
      "outputs": [
        {
          "internalType": "uint256",
          "name": "againstVotes",
          "type": "uint256"
        },
        {
          "internalType": "uint256",
          "name": "forVotes",
          "type": "uint256"
        },
        {
          "internalType": "uint256",
          "name": "abstainVotes",
          "type": "uint256"
        }
      ],
      "stateMutability": "view",
      "type": "function"
    },
    {
      "inputs": [
        {
          "internalType": "address[]",
          "name": "targets",
          "type": "address[]"
        },
        {
          "internalType": "uint256[]",
          "name": "values",
          "type": "uint256[]"
        },
        {
          "internalType": "bytes[]",
          "name": "calldatas",
          "type": "bytes[]"
        },
        {
          "internalType": "string",
          "name": "description",
          "type": "string"
        }
      ],
      "name": "propose",
      "outputs": [
        {
          "internalType": "uint256",
          "name": "",
          "type": "uint256"
        }
      ],
      "stateMutability": "nonpayable",
      "type": "function"
    },
    {
      "inputs": [
        {
          "internalType": "uint256",
          "name": "blockNumber",
          "type": "uint256"
        }
      ],
      "name": "quorum",
      "outputs": [
        {
          "internalType": "uint256",
          "name": "",
          "type": "uint256"
        }
      ],
      "stateMutability": "view",
      "type": "function"
    },
    {
      "inputs": [],
      "name": "quorumDenominator",
      "outputs": [
        {
          "internalType": "uint256",
          "name": "",
          "type": "uint256"
        }
      ],
      "stateMutability": "view",
      "type": "function"
    },
    {
      "inputs": [
        {
          "internalType": "uint256",
          "name": "blockNumber",
          "type": "uint256"
        }
      ],
      "name": "quorumNumerator",
      "outputs": [
        {
          "internalType": "uint256",
          "name": "",
          "type": "uint256"
        }
      ],
      "stateMutability": "view",
      "type": "function"
    },
    {
      "inputs": [],
      "name": "quorumNumerator",
      "outputs": [
        {
          "internalType": "uint256",
          "name": "",
          "type": "uint256"
        }
      ],
      "stateMutability": "view",
      "type": "function"
    },
    {
      "inputs": [
        {
          "internalType": "address",
          "name": "target",
          "type": "address"
        },
        {
          "internalType": "uint256",
          "name": "value",
          "type": "uint256"
        },
        {
          "internalType": "bytes",
          "name": "data",
          "type": "bytes"
        }
      ],
      "name": "relay",
      "outputs": [],
      "stateMutability": "payable",
      "type": "function"
    },
    {
      "inputs": [
        {
          "internalType": "address",
          "name": "_automation",
          "type": "address"
        }
      ],
      "name": "setAutomation",
      "outputs": [],
      "stateMutability": "nonpayable",
      "type": "function"
    },
    {
      "inputs": [
        {
          "internalType": "uint256",
          "name": "proposalId",
          "type": "uint256"
        }
      ],
      "name": "state",
      "outputs": [
        {
          "internalType": "enum IGovernor.ProposalState",
          "name": "",
          "type": "uint8"
        }
      ],
      "stateMutability": "view",
      "type": "function"
    },
    {
      "inputs": [
        {
          "internalType": "bytes4",
          "name": "interfaceId",
          "type": "bytes4"
        }
      ],
      "name": "supportsInterface",
      "outputs": [
        {
          "internalType": "bool",
          "name": "",
          "type": "bool"
        }
      ],
      "stateMutability": "view",
      "type": "function"
    },
    {
      "inputs": [],
      "name": "token",
      "outputs": [
        {
          "internalType": "contract IVotes",
          "name": "",
          "type": "address"
        }
      ],
      "stateMutability": "view",
      "type": "function"
    },
    {
      "inputs": [
        {
          "internalType": "uint256",
          "name": "newQuorumNumerator",
          "type": "uint256"
        }
      ],
      "name": "updateQuorumNumerator",
      "outputs": [],
      "stateMutability": "nonpayable",
      "type": "function"
    },
    {
      "inputs": [],
      "name": "version",
      "outputs": [
        {
          "internalType": "string",
          "name": "",
          "type": "string"
        }
      ],
      "stateMutability": "view",
      "type": "function"
    },
    {
      "inputs": [],
      "name": "votingDelay",
      "outputs": [
        {
          "internalType": "uint256",
          "name": "",
          "type": "uint256"
        }
      ],
      "stateMutability": "pure",
      "type": "function"
    },
    {
      "inputs": [],
      "name": "votingPeriod",
      "outputs": [
        {
          "internalType": "uint256",
          "name": "",
          "type": "uint256"
        }
      ],
      "stateMutability": "pure",
      "type": "function"
    },
    {
      "stateMutability": "payable",
      "type": "receive"
    }
  ],
  "transactionHash": "0x96a5c42291573ac0d085b5d7207eeace9cea216908f7cbf6acd6767af4747c3c",
  "args": [
    "0x5FbDB2315678afecb367f032d93F642f64180aa3",
    "0xe7f1725E7734CE288F8367e1Bb143E90bb3F0512"
  ],
  "numDeployments": 1,
  "solcInputHash": "aa76c5e364cb6d81bd96e8d3a7062031",
  "bytecode": "0x610160604052603c600e553480156200001757600080fd5b50604051620078c3380380620078c383398181016040528101906200003d919062000ac3565b6004826040518060400160405280600a81526020017f476f7665726e616e6365000000000000000000000000000000000000000000008152508062000087620001dd60201b60201c565b60008280519060200120905060008280519060200120905060007f8b73c3c69bb8fe3d512ecc4cf759cc79239f7b179b0ffacaa9a75d522b39400f90508260e081815250508161010081815250504660a08181525050620000f08184846200021a60201b60201c565b608081815250503073ffffffffffffffffffffffffffffffffffffffff1660c08173ffffffffffffffffffffffffffffffffffffffff1681525050806101208181525050505050505080600090816200014a919062000d84565b50508073ffffffffffffffffffffffffffffffffffffffff166101408173ffffffffffffffffffffffffffffffffffffffff16815250505062000193816200025660201b60201c565b5080600760006101000a81548173ffffffffffffffffffffffffffffffffffffffff021916908373ffffffffffffffffffffffffffffffffffffffff16021790555050506200120d565b60606040518060400160405280600181526020017f3100000000000000000000000000000000000000000000000000000000000000815250905090565b600083838346306040516020016200023795949392919062000ea8565b6040516020818303038152906040528051906020012090509392505050565b620002666200043560201b60201c565b811115620002ab576040517f08c379a0000000000000000000000000000000000000000000000000000000008152600401620002a29062000fb2565b60405180910390fd5b6000620002bd6200043e60201b60201c565b905060008114158015620002d957506000600660000180549050145b15620003d95760066000016040518060400160405280600063ffffffff16815260200162000312846200049460201b62001cfd1760201c565b7bffffffffffffffffffffffffffffffffffffffffffffffffffffffff168152509080600181540180825580915050600190039060005260206000200160009091909190915060008201518160000160006101000a81548163ffffffff021916908363ffffffff16021790555060208201518160000160046101000a8154817bffffffffffffffffffffffffffffffffffffffffffffffffffffffff02191690837bffffffffffffffffffffffffffffffffffffffffffffffffffffffff16021790555050505b620003f48260066200050260201b62001d681790919060201c565b50507f0553476bf02ef2726e8ce5ced78d63e26e602e4a2257b1f559418e24b463399781836040516200042992919062000fd4565b60405180910390a15050565b60006064905090565b600080600660000180549050146200048b576200046760066200059260201b62001dd61760201c565b7bffffffffffffffffffffffffffffffffffffffffffffffffffffffff166200048f565b6005545b905090565b60007bffffffffffffffffffffffffffffffffffffffffffffffffffffffff8016821115620004fa576040517f08c379a0000000000000000000000000000000000000000000000000000000008152600401620004f19062001077565b60405180910390fd5b819050919050565b600080620005458460000162000523436200060860201b62001e401760201c565b62000539866200049460201b62001cfd1760201c565b6200065e60201b60201c565b817bffffffffffffffffffffffffffffffffffffffffffffffffffffffff169150807bffffffffffffffffffffffffffffffffffffffffffffffffffffffff169050915091509250929050565b6000808260000180549050905060008114620005fd57620005cb83600001600183620005bf9190620010c8565b620009ff60201b60201c565b60000160049054906101000a90047bffffffffffffffffffffffffffffffffffffffffffffffffffffffff1662000600565b60005b915050919050565b600063ffffffff801682111562000656576040517f08c379a00000000000000000000000000000000000000000000000000000000081526004016200064d9062001179565b60405180910390fd5b819050919050565b60008060008580549050905060008111156200090f57600062000696876001846200068a9190620010c8565b620009ff60201b60201c565b6040518060400160405290816000820160009054906101000a900463ffffffff1663ffffffff1663ffffffff1681526020016000820160049054906101000a90047bffffffffffffffffffffffffffffffffffffffffffffffffffffffff167bffffffffffffffffffffffffffffffffffffffffffffffffffffffff167bffffffffffffffffffffffffffffffffffffffffffffffffffffffff168152505090508563ffffffff16816000015163ffffffff1611156200078d576040517f08c379a00000000000000000000000000000000000000000000000000000000081526004016200078490620011eb565b60405180910390fd5b8563ffffffff16816000015163ffffffff16036200081d5784620007c688600185620007ba9190620010c8565b620009ff60201b60201c565b60000160046101000a8154817bffffffffffffffffffffffffffffffffffffffffffffffffffffffff02191690837bffffffffffffffffffffffffffffffffffffffffffffffffffffffff160217905550620008fd565b8660405180604001604052808863ffffffff168152602001877bffffffffffffffffffffffffffffffffffffffffffffffffffffffff168152509080600181540180825580915050600190039060005260206000200160009091909190915060008201518160000160006101000a81548163ffffffff021916908363ffffffff16021790555060208201518160000160046101000a8154817bffffffffffffffffffffffffffffffffffffffffffffffffffffffff02191690837bffffffffffffffffffffffffffffffffffffffffffffffffffffffff16021790555050505b806020015185935093505050620009f7565b8560405180604001604052808763ffffffff168152602001867bffffffffffffffffffffffffffffffffffffffffffffffffffffffff168152509080600181540180825580915050600190039060005260206000200160009091909190915060008201518160000160006101000a81548163ffffffff021916908363ffffffff16021790555060208201518160000160046101000a8154817bffffffffffffffffffffffffffffffffffffffffffffffffffffffff02191690837bffffffffffffffffffffffffffffffffffffffffffffffffffffffff160217905550505060008492509250505b935093915050565b60008260005281602060002001905092915050565b600080fd5b600073ffffffffffffffffffffffffffffffffffffffff82169050919050565b600062000a468262000a19565b9050919050565b600062000a5a8262000a39565b9050919050565b62000a6c8162000a4d565b811462000a7857600080fd5b50565b60008151905062000a8c8162000a61565b92915050565b62000a9d8162000a39565b811462000aa957600080fd5b50565b60008151905062000abd8162000a92565b92915050565b6000806040838503121562000add5762000adc62000a14565b5b600062000aed8582860162000a7b565b925050602062000b008582860162000aac565b9150509250929050565b600081519050919050565b7f4e487b7100000000000000000000000000000000000000000000000000000000600052604160045260246000fd5b7f4e487b7100000000000000000000000000000000000000000000000000000000600052602260045260246000fd5b6000600282049050600182168062000b8c57607f821691505b60208210810362000ba25762000ba162000b44565b5b50919050565b60008190508160005260206000209050919050565b60006020601f8301049050919050565b600082821b905092915050565b60006008830262000c0c7fffffffffffffffffffffffffffffffffffffffffffffffffffffffffffffffff8262000bcd565b62000c18868362000bcd565b95508019841693508086168417925050509392505050565b6000819050919050565b6000819050919050565b600062000c6562000c5f62000c598462000c30565b62000c3a565b62000c30565b9050919050565b6000819050919050565b62000c818362000c44565b62000c9962000c908262000c6c565b84845462000bda565b825550505050565b600090565b62000cb062000ca1565b62000cbd81848462000c76565b505050565b5b8181101562000ce55762000cd960008262000ca6565b60018101905062000cc3565b5050565b601f82111562000d345762000cfe8162000ba8565b62000d098462000bbd565b8101602085101562000d19578190505b62000d3162000d288562000bbd565b83018262000cc2565b50505b505050565b600082821c905092915050565b600062000d596000198460080262000d39565b1980831691505092915050565b600062000d74838362000d46565b9150826002028217905092915050565b62000d8f8262000b0a565b67ffffffffffffffff81111562000dab5762000daa62000b15565b5b62000db7825462000b73565b62000dc482828562000ce9565b600060209050601f83116001811462000dfc576000841562000de7578287015190505b62000df3858262000d66565b86555062000e63565b601f19841662000e0c8662000ba8565b60005b8281101562000e365784890151825560018201915060208501945060208101905062000e0f565b8683101562000e56578489015162000e52601f89168262000d46565b8355505b6001600288020188555050505b505050505050565b6000819050919050565b62000e808162000e6b565b82525050565b62000e918162000c30565b82525050565b62000ea28162000a39565b82525050565b600060a08201905062000ebf600083018862000e75565b62000ece602083018762000e75565b62000edd604083018662000e75565b62000eec606083018562000e86565b62000efb608083018462000e97565b9695505050505050565b600082825260208201905092915050565b7f476f7665726e6f72566f74657351756f72756d4672616374696f6e3a2071756f60008201527f72756d4e756d657261746f72206f7665722071756f72756d44656e6f6d696e6160208201527f746f720000000000000000000000000000000000000000000000000000000000604082015250565b600062000f9a60438362000f05565b915062000fa78262000f16565b606082019050919050565b6000602082019050818103600083015262000fcd8162000f8b565b9050919050565b600060408201905062000feb600083018562000e86565b62000ffa602083018462000e86565b9392505050565b7f53616665436173743a2076616c756520646f65736e27742066697420696e203260008201527f3234206269747300000000000000000000000000000000000000000000000000602082015250565b60006200105f60278362000f05565b91506200106c8262001001565b604082019050919050565b60006020820190508181036000830152620010928162001050565b9050919050565b7f4e487b7100000000000000000000000000000000000000000000000000000000600052601160045260246000fd5b6000620010d58262000c30565b9150620010e28362000c30565b9250828203905081811115620010fd57620010fc62001099565b5b92915050565b7f53616665436173743a2076616c756520646f65736e27742066697420696e203360008201527f3220626974730000000000000000000000000000000000000000000000000000602082015250565b60006200116160268362000f05565b91506200116e8262001103565b604082019050919050565b60006020820190508181036000830152620011948162001152565b9050919050565b7f436865636b706f696e743a20696e76616c6964206b6579000000000000000000600082015250565b6000620011d360178362000f05565b9150620011e0826200119b565b602082019050919050565b600060208201905081810360008301526200120681620011c4565b9050919050565b60805160a05160c05160e05161010051610120516101405161664d6200127660003960008181611cdb01528181612ae30152612bd4015260006130d001526000613112015260006130f1015260006130260152600061307c015260006130a5015261664d6000f3fe60806040526004361061024a5760003560e01c80635678138811610139578063b58131b0116100b6578063dd4e2ba51161007a578063dd4e2ba51461099c578063deaaa7cc146109c7578063eb9019d4146109f2578063f23a6e6114610a2f578063f8ce560a14610a6c578063fc0c546a14610aa957610290565b8063b58131b01461089e578063bc197c81146108c9578063c01f9e3714610906578063c28bc2fa14610943578063c59057e41461095f57610290565b80637d5e81e2116100fd5780637d5e81e2146107a35780638b257989146107e057806397c3d3341461080b5780639a802a6d14610836578063a7713a701461087357610290565b806356781388146106865780635f398a14146106c357806360c4247f14610700578063730dcc8e1461073d5780637b3c71d31461076657610290565b80632fe3e261116101c7578063438596321161018b578063438596321461058b578063452115d6146105c857806349f961d6146105f1578063544ffc9c1461061c57806354fd4d501461065b57610290565b80632fe3e261146104905780633932abb1146104bb5780633bccf4fd146104e65780633e4f49e61461052357806341ec68701461056057610290565b8063150b7a021161020e578063150b7a021461038e5780631ad85cb5146103cb5780632656227d146103f65780632b49d425146104265780632d63f6931461045357610290565b806301ffc9a71461029557806302a251a3146102d257806303420181146102fd57806306f3f9e61461033a57806306fdde031461036357610290565b36610290573073ffffffffffffffffffffffffffffffffffffffff1661026e610ad4565b73ffffffffffffffffffffffffffffffffffffffff161461028e57600080fd5b005b600080fd5b3480156102a157600080fd5b506102bc60048036038101906102b79190613c86565b610adc565b6040516102c99190613cce565b60405180910390f35b3480156102de57600080fd5b506102e7610c41565b6040516102f49190613d02565b60405180910390f35b34801561030957600080fd5b50610324600480360381019061031f9190613f5e565b610c4a565b6040516103319190613d02565b60405180910390f35b34801561034657600080fd5b50610361600480360381019061035c919061403c565b610d2f565b005b34801561036f57600080fd5b50610378610e26565b60405161038591906140e8565b60405180910390f35b34801561039a57600080fd5b506103b560048036038101906103b09190614168565b610eb8565b6040516103c291906141fa565b60405180910390f35b3480156103d757600080fd5b506103e0610ecc565b6040516103ed9190613cce565b60405180910390f35b610410600480360381019061040b919061447c565b610f44565b60405161041d9190613d02565b60405180910390f35b34801561043257600080fd5b5061043b610fbd565b60405161044a93929190614546565b60405180910390f35b34801561045f57600080fd5b5061047a6004803603810190610475919061403c565b610fd5565b6040516104879190613d02565b60405180910390f35b34801561049c57600080fd5b506104a5611043565b6040516104b2919061457d565b60405180910390f35b3480156104c757600080fd5b506104d0611067565b6040516104dd9190613d02565b60405180910390f35b3480156104f257600080fd5b5061050d60048036038101906105089190614598565b611070565b60405161051a9190613d02565b60405180910390f35b34801561052f57600080fd5b5061054a6004803603810190610545919061403c565b6110fa565b604051610557919061468a565b60405180910390f35b34801561056c57600080fd5b5061057561120e565b60405161058291906149de565b60405180910390f35b34801561059757600080fd5b506105b260048036038101906105ad9190614a00565b611405565b6040516105bf9190613cce565b60405180910390f35b3480156105d457600080fd5b506105ef60048036038101906105ea919061447c565b611470565b005b3480156105fd57600080fd5b506106066114d0565b6040516106139190614a4f565b60405180910390f35b34801561062857600080fd5b50610643600480360381019061063e919061403c565b6114f6565b60405161065293929190614a6a565b60405180910390f35b34801561066757600080fd5b5061067061152e565b60405161067d91906140e8565b60405180910390f35b34801561069257600080fd5b506106ad60048036038101906106a89190614aa1565b61156b565b6040516106ba9190613d02565b60405180910390f35b3480156106cf57600080fd5b506106ea60048036038101906106e59190614ae1565b61159c565b6040516106f79190613d02565b60405180910390f35b34801561070c57600080fd5b506107276004803603810190610722919061403c565b611606565b6040516107349190613d02565b60405180910390f35b34801561074957600080fd5b50610764600480360381019061075f9190614b85565b611752565b005b34801561077257600080fd5b5061078d60048036038101906107889190614bb2565b611804565b60405161079a9190613d02565b60405180910390f35b3480156107af57600080fd5b506107ca60048036038101906107c59190614cc7565b61186c565b6040516107d79190613d02565b60405180910390f35b3480156107ec57600080fd5b506107f561197c565b6040516108029190613d02565b60405180910390f35b34801561081757600080fd5b50610820611982565b60405161082d9190613d02565b60405180910390f35b34801561084257600080fd5b5061085d60048036038101906108589190614d9e565b61198b565b60405161086a9190613d02565b60405180910390f35b34801561087f57600080fd5b506108886119a1565b6040516108959190613d02565b60405180910390f35b3480156108aa57600080fd5b506108b36119e8565b6040516108c09190613d02565b60405180910390f35b3480156108d557600080fd5b506108f060048036038101906108eb9190614e0d565b6119ed565b6040516108fd91906141fa565b60405180910390f35b34801561091257600080fd5b5061092d6004803603810190610928919061403c565b611a02565b60405161093a9190613d02565b60405180910390f35b61095d60048036038101906109589190614f32565b611a70565b005b34801561096b57600080fd5b506109866004803603810190610981919061447c565b611bf9565b6040516109939190613d02565b60405180910390f35b3480156109a857600080fd5b506109b1611c35565b6040516109be91906140e8565b60405180910390f35b3480156109d357600080fd5b506109dc611c72565b6040516109e9919061457d565b60405180910390f35b3480156109fe57600080fd5b50610a196004803603810190610a149190614fa6565b611c96565b604051610a269190613d02565b60405180910390f35b348015610a3b57600080fd5b50610a566004803603810190610a519190614fe6565b611cb2565b604051610a6391906141fa565b60405180910390f35b348015610a7857600080fd5b50610a936004803603810190610a8e919061403c565b611cc7565b604051610aa09190613d02565b60405180910390f35b348015610ab557600080fd5b50610abe611cd9565b604051610acb91906150dc565b60405180910390f35b600030905090565b6000639a802a6d60e01b630342018160e01b635f398a1460e01b7f79dd796f000000000000000000000000000000000000000000000000000000001818187bffffffffffffffffffffffffffffffffffffffffffffffffffffffff1916827bffffffffffffffffffffffffffffffffffffffffffffffffffffffff19161480610bc257507f79dd796f000000000000000000000000000000000000000000000000000000007bffffffffffffffffffffffffffffffffffffffffffffffffffffffff1916827bffffffffffffffffffffffffffffffffffffffffffffffffffffffff1916145b80610c2a57507f4e2312e0000000000000000000000000000000000000000000000000000000007bffffffffffffffffffffffffffffffffffffffffffffffffffffffff1916827bffffffffffffffffffffffffffffffffffffffffffffffffffffffff1916145b80610c3a5750610c3982611e93565b5b9050919050565b6000600a905090565b600080610ccd610cc57fb3b3f3b703cd84ce352197dcff232b1b5d3cfb2025ce47cf04742d0651f1af888c8c8c8c604051610c86929190615127565b60405180910390208b80519060200120604051602001610caa95949392919061514f565b60405160208183030381529060405280519060200120611efd565b868686611f17565b9050610d208a828b8b8b8080601f016020809104026020016040519081016040528093929190818152602001838380828437600081840152601f19601f820116905080830192505050505050508a611f42565b91505098975050505050505050565b610d37610ad4565b73ffffffffffffffffffffffffffffffffffffffff16610d556120fe565b73ffffffffffffffffffffffffffffffffffffffff1614610dab576040517f08c379a0000000000000000000000000000000000000000000000000000000008152600401610da2906151ee565b60405180910390fd5b3073ffffffffffffffffffffffffffffffffffffffff16610dca610ad4565b73ffffffffffffffffffffffffffffffffffffffff1614610e1a576000610def612106565b604051610dfd929190615127565b604051809103902090505b80610e136002612113565b03610e0857505b610e23816121ef565b50565b606060008054610e359061523d565b80601f0160208091040260200160405190810160405280929190818152602001828054610e619061523d565b8015610eae5780601f10610e8357610100808354040283529160200191610eae565b820191906000526020600020905b815481529060010190602001808311610e9157829003601f168201915b5050505050905090565b600063150b7a0260e01b9050949350505050565b600060046007811115610ee257610ee1614613565b5b610ef06008600001546110fa565b6007811115610f0257610f01614613565b5b1480610f3f575060056007811115610f1d57610f1c614613565b5b610f2b6008600001546110fa565b6007811115610f3d57610f3c614613565b5b145b905090565b6000600760009054906101000a900473ffffffffffffffffffffffffffffffffffffffff1673ffffffffffffffffffffffffffffffffffffffff163373ffffffffffffffffffffffffffffffffffffffff1614610fa057600080fd5b610fac858585856123a3565b506008600001549050949350505050565b60088060000154908060010154908060050154905083565b6000611032600160008481526020019081526020016000206000016040518060200160405290816000820160009054906101000a900467ffffffffffffffff1667ffffffffffffffff1667ffffffffffffffff16815250506124f0565b67ffffffffffffffff169050919050565b7fb3b3f3b703cd84ce352197dcff232b1b5d3cfb2025ce47cf04742d0651f1af8881565b60006001905090565b6000806110d16110c97f150214d74d59b7d1e90c73fc22ef3d991dd0a76b046543d4d80ab92d2a50328f89896040516020016110ae9392919061526e565b60405160208183030381529060405280519060200120611efd565b868686611f17565b90506110ee878288604051806020016040528060008152506124fe565b91505095945050505050565b6000806001600084815260200190815260200160002090508060020160009054906101000a900460ff1615611133576007915050611209565b8060020160019054906101000a900460ff1615611154576002915050611209565b600061115f84610fd5565b9050600081036111a4576040517f08c379a000000000000000000000000000000000000000000000000000000000815260040161119b906152f1565b60405180910390fd5b4381106111b657600092505050611209565b60006111c185611a02565b90504381106111d65760019350505050611209565b6111df8561251e565b80156111f057506111ef85612565565b5b156112015760049350505050611209565b600393505050505b919050565b611216613afd565b60086040518060c00160405290816000820154815260200160018201548152602001600282018054806020026020016040519081016040528092919081815260200182805480156112bc57602002820191906000526020600020905b8160009054906101000a900473ffffffffffffffffffffffffffffffffffffffff1673ffffffffffffffffffffffffffffffffffffffff1681526020019060010190808311611272575b505050505081526020016003820180548060200260200160405190810160405280929190818152602001828054801561131457602002820191906000526020600020905b815481526020019060010190808311611300575b5050505050815260200160048201805480602002602001604051908101604052809291908181526020016000905b828210156113ee5783829060005260206000200180546113619061523d565b80601f016020809104026020016040519081016040528092919081815260200182805461138d9061523d565b80156113da5780601f106113af576101008083540402835291602001916113da565b820191906000526020600020905b8154815290600101906020018083116113bd57829003601f168201915b505050505081526020019060010190611342565b505050508152602001600582015481525050905090565b60006004600084815260200190815260200160002060030160008373ffffffffffffffffffffffffffffffffffffffff1673ffffffffffffffffffffffffffffffffffffffff16815260200190815260200160002060009054906101000a900460ff16905092915050565b61147c84848484612590565b50600860008082016000905560018201600090556002820160006114a09190613b36565b6003820160006114b09190613b57565b6004820160006114c09190613b78565b6005820160009055505050505050565b600760009054906101000a900473ffffffffffffffffffffffffffffffffffffffff1681565b600080600080600460008681526020019081526020016000209050806000015481600101548260020154935093509350509193909250565b60606040518060400160405280600181526020017f3100000000000000000000000000000000000000000000000000000000000000815250905090565b6000806115766120fe565b9050611593848285604051806020016040528060008152506124fe565b91505092915050565b6000806115a76120fe565b90506115fa87828888888080601f016020809104026020016040519081016040528093929190818152602001838380828437600081840152601f19601f8201169050808301925050505050505087611f42565b91505095945050505050565b6000806006600001805490509050600081036116275760055491505061174d565b6000600660000160018361163b9190615340565b8154811061164c5761164b615374565b5b906000526020600020016040518060400160405290816000820160009054906101000a900463ffffffff1663ffffffff1663ffffffff1681526020016000820160049054906101000a90047bffffffffffffffffffffffffffffffffffffffffffffffffffffffff167bffffffffffffffffffffffffffffffffffffffffffffffffffffffff167bffffffffffffffffffffffffffffffffffffffffffffffffffffffff1681525050905083816000015163ffffffff16116117345780602001517bffffffffffffffffffffffffffffffffffffffffffffffffffffffff169250505061174d565b6117488460066126e990919063ffffffff16565b925050505b919050565b3073ffffffffffffffffffffffffffffffffffffffff163373ffffffffffffffffffffffffffffffffffffffff16146117c0576040517f08c379a00000000000000000000000000000000000000000000000000000000081526004016117b7906153ef565b60405180910390fd5b80600760006101000a81548173ffffffffffffffffffffffffffffffffffffffff021916908373ffffffffffffffffffffffffffffffffffffffff16021790555050565b60008061180f6120fe565b905061186186828787878080601f016020809104026020016040519081016040528093929190818152602001838380828437600081840152601f19601f820116905080830192505050505050506124fe565b915050949350505050565b60006002600781111561188257611881614613565b5b6118906008600001546110fa565b60078111156118a2576118a1614613565b5b14806118df5750600360078111156118bd576118bc614613565b5b6118cb6008600001546110fa565b60078111156118dd576118dc614613565b5b145b8061191a57506007808111156118f8576118f7614613565b5b6119066008600001546110fa565b600781111561191857611917614613565b5b145b61192357600080fd5b61192f858585856127d8565b6008600001819055508180519060200120600860050181905550600e5460a542611959919061540f565b611963919061540f565b6008600101819055506008600001549050949350505050565b600e5481565b60006064905090565b6000611998848484612adf565b90509392505050565b600080600660000180549050146119df576119bc6006611dd6565b7bffffffffffffffffffffffffffffffffffffffffffffffffffffffff166119e3565b6005545b905090565b600090565b600063bc197c8160e01b905095945050505050565b6000611a5f600160008481526020019081526020016000206001016040518060200160405290816000820160009054906101000a900467ffffffffffffffff1667ffffffffffffffff1667ffffffffffffffff16815250506124f0565b67ffffffffffffffff169050919050565b611a78610ad4565b73ffffffffffffffffffffffffffffffffffffffff16611a966120fe565b73ffffffffffffffffffffffffffffffffffffffff1614611aec576040517f08c379a0000000000000000000000000000000000000000000000000000000008152600401611ae3906151ee565b60405180910390fd5b3073ffffffffffffffffffffffffffffffffffffffff16611b0b610ad4565b73ffffffffffffffffffffffffffffffffffffffff1614611b5b576000611b30612106565b604051611b3e929190615127565b604051809103902090505b80611b546002612113565b03611b4957505b6000808573ffffffffffffffffffffffffffffffffffffffff16858585604051611b86929190615127565b60006040518083038185875af1925050503d8060008114611bc3576040519150601f19603f3d011682016040523d82523d6000602084013e611bc8565b606091505b5091509150611bf082826040518060600160405280602881526020016165c960289139612b86565b50505050505050565b600084848484604051602001611c1294939291906155a7565b6040516020818303038152906040528051906020012060001c9050949350505050565b60606040518060400160405280602081526020017f737570706f72743d627261766f2671756f72756d3d666f722c6162737461696e815250905090565b7f150214d74d59b7d1e90c73fc22ef3d991dd0a76b046543d4d80ab92d2a50328f81565b6000611caa8383611ca5612ba8565b612adf565b905092915050565b600063f23a6e6160e01b905095945050505050565b6000611cd282612bbf565b9050919050565b7f000000000000000000000000000000000000000000000000000000000000000081565b60007bffffffffffffffffffffffffffffffffffffffffffffffffffffffff8016821115611d60576040517f08c379a0000000000000000000000000000000000000000000000000000000008152600401611d5790615673565b60405180910390fd5b819050919050565b600080611d8984600001611d7b43611e40565b611d8486611cfd565b612c87565b817bffffffffffffffffffffffffffffffffffffffffffffffffffffffff169150807bffffffffffffffffffffffffffffffffffffffffffffffffffffffff169050915091509250929050565b6000808260000180549050905060008114611e3557611e0483600001600183611dff9190615340565b61300d565b60000160049054906101000a90047bffffffffffffffffffffffffffffffffffffffffffffffffffffffff16611e38565b60005b915050919050565b600063ffffffff8016821115611e8b576040517f08c379a0000000000000000000000000000000000000000000000000000000008152600401611e8290615705565b60405180910390fd5b819050919050565b60007f01ffc9a7000000000000000000000000000000000000000000000000000000007bffffffffffffffffffffffffffffffffffffffffffffffffffffffff1916827bffffffffffffffffffffffffffffffffffffffffffffffffffffffff1916149050919050565b6000611f10611f0a613022565b8361313c565b9050919050565b6000806000611f288787878761316f565b91509150611f3581613251565b8192505050949350505050565b60008060016000888152602001908152602001600020905060016007811115611f6e57611f6d614613565b5b611f77886110fa565b6007811115611f8957611f88614613565b5b14611fc9576040517f08c379a0000000000000000000000000000000000000000000000000000000008152600401611fc090615797565b60405180910390fd5b600061202887612018846000016040518060200160405290816000820160009054906101000a900467ffffffffffffffff1667ffffffffffffffff1667ffffffffffffffff16815250506124f0565b67ffffffffffffffff1686612adf565b905061203788888884886133b7565b6000845103612099578673ffffffffffffffffffffffffffffffffffffffff167fb8e138887d0aa13bab447e82de9d5c1777041ecd21ca36ba824ff1e6c07ddda48988848960405161208c94939291906157b7565b60405180910390a26120f0565b8673ffffffffffffffffffffffffffffffffffffffff167fe2babfbac5889a709b63bb7f598b324e08bc5a4fb9ec647fb3cbc9ec07eb871289888489896040516120e795949392919061584d565b60405180910390a25b809250505095945050505050565b600033905090565b3660008036915091509091565b600061211e826135bb565b15612155576040517f3db2a12a00000000000000000000000000000000000000000000000000000000815260040160405180910390fd5b60008260000160009054906101000a9004600f0b905082600101600082600f0b600f0b815260200190815260200160002054915082600101600082600f0b600f0b815260200190815260200160002060009055600181018360000160006101000a8154816fffffffffffffffffffffffffffffffff0219169083600f0b6fffffffffffffffffffffffffffffffff16021790555050919050565b6121f7611982565b811115612239576040517f08c379a000000000000000000000000000000000000000000000000000000000815260040161223090615946565b60405180910390fd5b60006122436119a1565b90506000811415801561225e57506000600660000180549050145b156123505760066000016040518060400160405280600063ffffffff16815260200161228984611cfd565b7bffffffffffffffffffffffffffffffffffffffffffffffffffffffff168152509080600181540180825580915050600190039060005260206000200160009091909190915060008201518160000160006101000a81548163ffffffff021916908363ffffffff16021790555060208201518160000160046101000a8154817bffffffffffffffffffffffffffffffffffffffffffffffffffffffff02191690837bffffffffffffffffffffffffffffffffffffffffffffffffffffffff16021790555050505b612364826006611d6890919063ffffffff16565b50507f0553476bf02ef2726e8ce5ced78d63e26e602e4a2257b1f559418e24b46339978183604051612397929190615966565b60405180910390a15050565b6000806123b286868686611bf9565b905060006123bf826110fa565b9050600460078111156123d5576123d4614613565b5b8160078111156123e8576123e7614613565b5b148061241857506005600781111561240357612402614613565b5b81600781111561241657612415614613565b5b145b612457576040517f08c379a000000000000000000000000000000000000000000000000000000000815260040161244e90615a01565b60405180910390fd5b600180600084815260200190815260200160002060020160006101000a81548160ff0219169083151502179055507f712ae1383f79ac853f8d882153778e0260ef8f03b504e2866e0593e04d2b291f826040516124b49190613d02565b60405180910390a16124c982888888886135f0565b6124d682888888886136d3565b6124e382888888886137e2565b8192505050949350505050565b600081600001519050919050565b60006125148585858561250f612ba8565b611f42565b9050949350505050565b6000806004600084815260200190815260200160002090508060020154816001015461254a919061540f565b61255b61255685610fd5565b611cc7565b1115915050919050565b6000806004600084815260200190815260200160002090508060000154816001015411915050919050565b60008061259f86868686611bf9565b905060006125ac826110fa565b9050600260078111156125c2576125c1614613565b5b8160078111156125d5576125d4614613565b5b141580156126085750600660078111156125f2576125f1614613565b5b81600781111561260557612604614613565b5b14155b8015612638575060078081111561262257612621614613565b5b81600781111561263557612634614613565b5b14155b612677576040517f08c379a000000000000000000000000000000000000000000000000000000000815260040161266e90615a6d565b60405180910390fd5b600180600084815260200190815260200160002060020160016101000a81548160ff0219169083151502179055507f789cf55be980739dad1d0699b93b58e806b51c9d96619bfa8fe0a28abaa7b30c826040516126d49190613d02565b60405180910390a18192505050949350505050565b600043821061272d576040517f08c379a000000000000000000000000000000000000000000000000000000000815260040161272490615ad9565b60405180910390fd5b600061273883611e40565b90506000846000018054905090506000612758866000018460008561383d565b9050600081146127ac5761277b866000016001836127769190615340565b61300d565b60000160049054906101000a90047bffffffffffffffffffffffffffffffffffffffffffffffffffffffff166127af565b60005b7bffffffffffffffffffffffffffffffffffffffffffffffffffffffff16935050505092915050565b60006127e26119e8565b6127ff6127ed6120fe565b6001436127fa9190615340565b611c96565b1015612840576040517f08c379a000000000000000000000000000000000000000000000000000000000815260040161283790615b6b565b60405180910390fd5b60006128558686868680519060200120611bf9565b9050845186511461289b576040517f08c379a000000000000000000000000000000000000000000000000000000000815260040161289290615bfd565b60405180910390fd5b83518651146128df576040517f08c379a00000000000000000000000000000000000000000000000000000000081526004016128d690615bfd565b60405180910390fd5b6000865111612923576040517f08c379a000000000000000000000000000000000000000000000000000000000815260040161291a90615c69565b60405180910390fd5b6000600160008381526020019081526020016000209050612983816000016040518060200160405290816000820160009054906101000a900467ffffffffffffffff1667ffffffffffffffff1667ffffffffffffffff16815250506138b0565b6129c2576040517f08c379a00000000000000000000000000000000000000000000000000000000081526004016129b990615cfb565b60405180910390fd5b60006129d46129cf611067565b6138ca565b6129dd436138ca565b6129e79190615d2f565b905060006129fb6129f6610c41565b6138ca565b82612a069190615d2f565b9050612a1e828460000161392190919063ffffffff16565b612a34818460010161392190919063ffffffff16565b7f7d84a6263ae0d98d3329bd7b46bb4e8d6f98cd35a7adb45c274c8b7fd5ebd5e084612a5e6120fe565b8b8b8d5167ffffffffffffffff811115612a7b57612a7a613dfd565b5b604051908082528060200260200182016040528015612aae57816020015b6060815260200190600190039081612a995790505b508c88888e604051612ac899989796959493929190615ea8565b60405180910390a183945050505050949350505050565b60007f000000000000000000000000000000000000000000000000000000000000000073ffffffffffffffffffffffffffffffffffffffff16633a46b1a885856040518363ffffffff1660e01b8152600401612b3c929190615f58565b602060405180830381865afa158015612b59573d6000803e3d6000fd5b505050506040513d601f19601f82011682018060405250810190612b7d9190615f96565b90509392505050565b60608315612b9657829050612ba1565b612ba08383613950565b5b9392505050565b606060405180602001604052806000815250905090565b6000612bc9611982565b612bd283611606565b7f000000000000000000000000000000000000000000000000000000000000000073ffffffffffffffffffffffffffffffffffffffff16638e539e8c856040518263ffffffff1660e01b8152600401612c2b9190613d02565b602060405180830381865afa158015612c48573d6000803e3d6000fd5b505050506040513d601f19601f82011682018060405250810190612c6c9190615f96565b612c769190615fc3565b612c809190616034565b9050919050565b6000806000858054905090506000811115612f1d576000612cb487600184612caf9190615340565b61300d565b6040518060400160405290816000820160009054906101000a900463ffffffff1663ffffffff1663ffffffff1681526020016000820160049054906101000a90047bffffffffffffffffffffffffffffffffffffffffffffffffffffffff167bffffffffffffffffffffffffffffffffffffffffffffffffffffffff167bffffffffffffffffffffffffffffffffffffffffffffffffffffffff168152505090508563ffffffff16816000015163ffffffff161115612da8576040517f08c379a0000000000000000000000000000000000000000000000000000000008152600401612d9f906160b1565b60405180910390fd5b8563ffffffff16816000015163ffffffff1603612e2c5784612dd688600185612dd19190615340565b61300d565b60000160046101000a8154817bffffffffffffffffffffffffffffffffffffffffffffffffffffffff02191690837bffffffffffffffffffffffffffffffffffffffffffffffffffffffff160217905550612f0c565b8660405180604001604052808863ffffffff168152602001877bffffffffffffffffffffffffffffffffffffffffffffffffffffffff168152509080600181540180825580915050600190039060005260206000200160009091909190915060008201518160000160006101000a81548163ffffffff021916908363ffffffff16021790555060208201518160000160046101000a8154817bffffffffffffffffffffffffffffffffffffffffffffffffffffffff02191690837bffffffffffffffffffffffffffffffffffffffffffffffffffffffff16021790555050505b806020015185935093505050613005565b8560405180604001604052808763ffffffff168152602001867bffffffffffffffffffffffffffffffffffffffffffffffffffffffff168152509080600181540180825580915050600190039060005260206000200160009091909190915060008201518160000160006101000a81548163ffffffff021916908363ffffffff16021790555060208201518160000160046101000a8154817bffffffffffffffffffffffffffffffffffffffffffffffffffffffff02191690837bffffffffffffffffffffffffffffffffffffffffffffffffffffffff160217905550505060008492509250505b935093915050565b60008260005281602060002001905092915050565b60007f000000000000000000000000000000000000000000000000000000000000000073ffffffffffffffffffffffffffffffffffffffff163073ffffffffffffffffffffffffffffffffffffffff1614801561309e57507f000000000000000000000000000000000000000000000000000000000000000046145b156130cb577f00000000000000000000000000000000000000000000000000000000000000009050613139565b6131367f00000000000000000000000000000000000000000000000000000000000000007f00000000000000000000000000000000000000000000000000000000000000007f00000000000000000000000000000000000000000000000000000000000000006139a0565b90505b90565b60008282604051602001613151929190616149565b60405160208183030381529060405280519060200120905092915050565b6000807f7fffffffffffffffffffffffffffffff5d576e7357a4501ddfe92f46681b20a08360001c11156131aa576000600391509150613248565b6000600187878787604051600081526020016040526040516131cf9493929190616180565b6020604051602081039080840390855afa1580156131f1573d6000803e3d6000fd5b505050602060405103519050600073ffffffffffffffffffffffffffffffffffffffff168173ffffffffffffffffffffffffffffffffffffffff160361323f57600060019250925050613248565b80600092509250505b94509492505050565b6000600481111561326557613264614613565b5b81600481111561327857613277614613565b5b03156133b4576001600481111561329257613291614613565b5b8160048111156132a5576132a4614613565b5b036132e5576040517f08c379a00000000000000000000000000000000000000000000000000000000081526004016132dc90616211565b60405180910390fd5b600260048111156132f9576132f8614613565b5b81600481111561330c5761330b614613565b5b0361334c576040517f08c379a00000000000000000000000000000000000000000000000000000000081526004016133439061627d565b60405180910390fd5b600360048111156133605761335f614613565b5b81600481111561337357613372614613565b5b036133b3576040517f08c379a00000000000000000000000000000000000000000000000000000000081526004016133aa9061630f565b60405180910390fd5b5b50565b60006004600087815260200190815260200160002090508060030160008673ffffffffffffffffffffffffffffffffffffffff1673ffffffffffffffffffffffffffffffffffffffff16815260200190815260200160002060009054906101000a900460ff161561345d576040517f08c379a0000000000000000000000000000000000000000000000000000000008152600401613454906163a1565b60405180910390fd5b60018160030160008773ffffffffffffffffffffffffffffffffffffffff1673ffffffffffffffffffffffffffffffffffffffff16815260200190815260200160002060006101000a81548160ff021916908315150217905550600060028111156134cb576134ca614613565b5b60ff168460ff16036134f757828160000160008282546134eb919061540f565b925050819055506135b3565b6001600281111561350b5761350a614613565b5b60ff168460ff1603613537578281600101600082825461352b919061540f565b925050819055506135b2565b60028081111561354a57613549614613565b5b60ff168460ff1603613576578281600201600082825461356a919061540f565b925050819055506135b1565b6040517f08c379a00000000000000000000000000000000000000000000000000000000081526004016135a890616433565b60405180910390fd5b5b5b505050505050565b60008160000160009054906101000a9004600f0b600f0b8260000160109054906101000a9004600f0b600f0b13159050919050565b3073ffffffffffffffffffffffffffffffffffffffff1661360f610ad4565b73ffffffffffffffffffffffffffffffffffffffff16146136cc5760005b84518110156136ca573073ffffffffffffffffffffffffffffffffffffffff168582815181106136605761365f615374565b5b602002602001015173ffffffffffffffffffffffffffffffffffffffff16036136b9576136b883828151811061369957613698615374565b5b60200260200101518051906020012060026139da90919063ffffffff16565b5b806136c390616453565b905061362d565b505b5050505050565b60006040518060600160405280602781526020016165f160279139905060005b85518110156137d95760008087838151811061371257613711615374565b5b602002602001015173ffffffffffffffffffffffffffffffffffffffff1687848151811061374357613742615374565b5b602002602001015187858151811061375e5761375d615374565b5b602002602001015160405161377391906164cc565b60006040518083038185875af1925050503d80600081146137b0576040519150601f19603f3d011682016040523d82523d6000602084013e6137b5565b606091505b50915091506137c5828286612b86565b505050806137d290616453565b90506136f3565b50505050505050565b3073ffffffffffffffffffffffffffffffffffffffff16613801610ad4565b73ffffffffffffffffffffffffffffffffffffffff16146138365761382660026135bb565b613835576138346002613a56565b5b5b5050505050565b60005b818310156138a55760006138548484613ad7565b90508463ffffffff16613867878361300d565b60000160009054906101000a900463ffffffff1663ffffffff16111561388f5780925061389f565b60018161389c919061540f565b93505b50613840565b819050949350505050565b600080826000015167ffffffffffffffff16149050919050565b600067ffffffffffffffff8016821115613919576040517f08c379a000000000000000000000000000000000000000000000000000000000815260040161391090616555565b60405180910390fd5b819050919050565b808260000160006101000a81548167ffffffffffffffff021916908367ffffffffffffffff1602179055505050565b6000825111156139635781518083602001fd5b806040517f08c379a000000000000000000000000000000000000000000000000000000000815260040161399791906140e8565b60405180910390fd5b600083838346306040516020016139bb959493929190616575565b6040516020818303038152906040528051906020012090509392505050565b60008260000160109054906101000a9004600f0b90508183600101600083600f0b600f0b815260200190815260200160002081905550600181018360000160106101000a8154816fffffffffffffffffffffffffffffffff0219169083600f0b6fffffffffffffffffffffffffffffffff160217905550505050565b60008160000160006101000a8154816fffffffffffffffffffffffffffffffff0219169083600f0b6fffffffffffffffffffffffffffffffff16021790555060008160000160106101000a8154816fffffffffffffffffffffffffffffffff0219169083600f0b6fffffffffffffffffffffffffffffffff16021790555050565b60006002828418613ae89190616034565b828416613af5919061540f565b905092915050565b6040518060c001604052806000815260200160008152602001606081526020016060815260200160608152602001600080191681525090565b5080546000825590600052602060002090810190613b549190613b99565b50565b5080546000825590600052602060002090810190613b759190613b99565b50565b5080546000825590600052602060002090810190613b969190613bb6565b50565b5b80821115613bb2576000816000905550600101613b9a565b5090565b5b80821115613bd65760008181613bcd9190613bda565b50600101613bb7565b5090565b508054613be69061523d565b6000825580601f10613bf85750613c17565b601f016020900490600052602060002090810190613c169190613b99565b5b50565b6000604051905090565b600080fd5b600080fd5b60007fffffffff0000000000000000000000000000000000000000000000000000000082169050919050565b613c6381613c2e565b8114613c6e57600080fd5b50565b600081359050613c8081613c5a565b92915050565b600060208284031215613c9c57613c9b613c24565b5b6000613caa84828501613c71565b91505092915050565b60008115159050919050565b613cc881613cb3565b82525050565b6000602082019050613ce36000830184613cbf565b92915050565b6000819050919050565b613cfc81613ce9565b82525050565b6000602082019050613d176000830184613cf3565b92915050565b613d2681613ce9565b8114613d3157600080fd5b50565b600081359050613d4381613d1d565b92915050565b600060ff82169050919050565b613d5f81613d49565b8114613d6a57600080fd5b50565b600081359050613d7c81613d56565b92915050565b600080fd5b600080fd5b600080fd5b60008083601f840112613da757613da6613d82565b5b8235905067ffffffffffffffff811115613dc457613dc3613d87565b5b602083019150836001820283011115613de057613ddf613d8c565b5b9250929050565b600080fd5b6000601f19601f8301169050919050565b7f4e487b7100000000000000000000000000000000000000000000000000000000600052604160045260246000fd5b613e3582613dec565b810181811067ffffffffffffffff82111715613e5457613e53613dfd565b5b80604052505050565b6000613e67613c1a565b9050613e738282613e2c565b919050565b600067ffffffffffffffff821115613e9357613e92613dfd565b5b613e9c82613dec565b9050602081019050919050565b82818337600083830152505050565b6000613ecb613ec684613e78565b613e5d565b905082815260208101848484011115613ee757613ee6613de7565b5b613ef2848285613ea9565b509392505050565b600082601f830112613f0f57613f0e613d82565b5b8135613f1f848260208601613eb8565b91505092915050565b6000819050919050565b613f3b81613f28565b8114613f4657600080fd5b50565b600081359050613f5881613f32565b92915050565b60008060008060008060008060e0898b031215613f7e57613f7d613c24565b5b6000613f8c8b828c01613d34565b9850506020613f9d8b828c01613d6d565b975050604089013567ffffffffffffffff811115613fbe57613fbd613c29565b5b613fca8b828c01613d91565b9650965050606089013567ffffffffffffffff811115613fed57613fec613c29565b5b613ff98b828c01613efa565b945050608061400a8b828c01613d6d565b93505060a061401b8b828c01613f49565b92505060c061402c8b828c01613f49565b9150509295985092959890939650565b60006020828403121561405257614051613c24565b5b600061406084828501613d34565b91505092915050565b600081519050919050565b600082825260208201905092915050565b60005b838110156140a3578082015181840152602081019050614088565b60008484015250505050565b60006140ba82614069565b6140c48185614074565b93506140d4818560208601614085565b6140dd81613dec565b840191505092915050565b6000602082019050818103600083015261410281846140af565b905092915050565b600073ffffffffffffffffffffffffffffffffffffffff82169050919050565b60006141358261410a565b9050919050565b6141458161412a565b811461415057600080fd5b50565b6000813590506141628161413c565b92915050565b6000806000806080858703121561418257614181613c24565b5b600061419087828801614153565b94505060206141a187828801614153565b93505060406141b287828801613d34565b925050606085013567ffffffffffffffff8111156141d3576141d2613c29565b5b6141df87828801613efa565b91505092959194509250565b6141f481613c2e565b82525050565b600060208201905061420f60008301846141eb565b92915050565b600067ffffffffffffffff8211156142305761422f613dfd565b5b602082029050602081019050919050565b600061425461424f84614215565b613e5d565b9050808382526020820190506020840283018581111561427757614276613d8c565b5b835b818110156142a0578061428c8882614153565b845260208401935050602081019050614279565b5050509392505050565b600082601f8301126142bf576142be613d82565b5b81356142cf848260208601614241565b91505092915050565b600067ffffffffffffffff8211156142f3576142f2613dfd565b5b602082029050602081019050919050565b6000614317614312846142d8565b613e5d565b9050808382526020820190506020840283018581111561433a57614339613d8c565b5b835b81811015614363578061434f8882613d34565b84526020840193505060208101905061433c565b5050509392505050565b600082601f83011261438257614381613d82565b5b8135614392848260208601614304565b91505092915050565b600067ffffffffffffffff8211156143b6576143b5613dfd565b5b602082029050602081019050919050565b60006143da6143d58461439b565b613e5d565b905080838252602082019050602084028301858111156143fd576143fc613d8c565b5b835b8181101561444457803567ffffffffffffffff81111561442257614421613d82565b5b80860161442f8982613efa565b855260208501945050506020810190506143ff565b5050509392505050565b600082601f83011261446357614462613d82565b5b81356144738482602086016143c7565b91505092915050565b6000806000806080858703121561449657614495613c24565b5b600085013567ffffffffffffffff8111156144b4576144b3613c29565b5b6144c0878288016142aa565b945050602085013567ffffffffffffffff8111156144e1576144e0613c29565b5b6144ed8782880161436d565b935050604085013567ffffffffffffffff81111561450e5761450d613c29565b5b61451a8782880161444e565b925050606061452b87828801613f49565b91505092959194509250565b61454081613f28565b82525050565b600060608201905061455b6000830186613cf3565b6145686020830185613cf3565b6145756040830184614537565b949350505050565b60006020820190506145926000830184614537565b92915050565b600080600080600060a086880312156145b4576145b3613c24565b5b60006145c288828901613d34565b95505060206145d388828901613d6d565b94505060406145e488828901613d6d565b93505060606145f588828901613f49565b925050608061460688828901613f49565b9150509295509295909350565b7f4e487b7100000000000000000000000000000000000000000000000000000000600052602160045260246000fd5b6008811061465357614652614613565b5b50565b600081905061466482614642565b919050565b600061467482614656565b9050919050565b61468481614669565b82525050565b600060208201905061469f600083018461467b565b92915050565b6146ae81613ce9565b82525050565b600081519050919050565b600082825260208201905092915050565b6000819050602082019050919050565b6146e98161412a565b82525050565b60006146fb83836146e0565b60208301905092915050565b6000602082019050919050565b600061471f826146b4565b61472981856146bf565b9350614734836146d0565b8060005b8381101561476557815161474c88826146ef565b975061475783614707565b925050600181019050614738565b5085935050505092915050565b600081519050919050565b600082825260208201905092915050565b6000819050602082019050919050565b60006147aa83836146a5565b60208301905092915050565b6000602082019050919050565b60006147ce82614772565b6147d8818561477d565b93506147e38361478e565b8060005b838110156148145781516147fb888261479e565b9750614806836147b6565b9250506001810190506147e7565b5085935050505092915050565b600081519050919050565b600082825260208201905092915050565b6000819050602082019050919050565b600081519050919050565b600082825260208201905092915050565b60006148748261484d565b61487e8185614858565b935061488e818560208601614085565b61489781613dec565b840191505092915050565b60006148ae8383614869565b905092915050565b6000602082019050919050565b60006148ce82614821565b6148d8818561482c565b9350836020820285016148ea8561483d565b8060005b85811015614926578484038952815161490785826148a2565b9450614912836148b6565b925060208a019950506001810190506148ee565b50829750879550505050505092915050565b61494181613f28565b82525050565b600060c08301600083015161495f60008601826146a5565b50602083015161497260208601826146a5565b506040830151848203604086015261498a8282614714565b915050606083015184820360608601526149a482826147c3565b915050608083015184820360808601526149be82826148c3565b91505060a08301516149d360a0860182614938565b508091505092915050565b600060208201905081810360008301526149f88184614947565b905092915050565b60008060408385031215614a1757614a16613c24565b5b6000614a2585828601613d34565b9250506020614a3685828601614153565b9150509250929050565b614a498161412a565b82525050565b6000602082019050614a646000830184614a40565b92915050565b6000606082019050614a7f6000830186613cf3565b614a8c6020830185613cf3565b614a996040830184613cf3565b949350505050565b60008060408385031215614ab857614ab7613c24565b5b6000614ac685828601613d34565b9250506020614ad785828601613d6d565b9150509250929050565b600080600080600060808688031215614afd57614afc613c24565b5b6000614b0b88828901613d34565b9550506020614b1c88828901613d6d565b945050604086013567ffffffffffffffff811115614b3d57614b3c613c29565b5b614b4988828901613d91565b9350935050606086013567ffffffffffffffff811115614b6c57614b6b613c29565b5b614b7888828901613efa565b9150509295509295909350565b600060208284031215614b9b57614b9a613c24565b5b6000614ba984828501614153565b91505092915050565b60008060008060608587031215614bcc57614bcb613c24565b5b6000614bda87828801613d34565b9450506020614beb87828801613d6d565b935050604085013567ffffffffffffffff811115614c0c57614c0b613c29565b5b614c1887828801613d91565b925092505092959194509250565b600067ffffffffffffffff821115614c4157614c40613dfd565b5b614c4a82613dec565b9050602081019050919050565b6000614c6a614c6584614c26565b613e5d565b905082815260208101848484011115614c8657614c85613de7565b5b614c91848285613ea9565b509392505050565b600082601f830112614cae57614cad613d82565b5b8135614cbe848260208601614c57565b91505092915050565b60008060008060808587031215614ce157614ce0613c24565b5b600085013567ffffffffffffffff811115614cff57614cfe613c29565b5b614d0b878288016142aa565b945050602085013567ffffffffffffffff811115614d2c57614d2b613c29565b5b614d388782880161436d565b935050604085013567ffffffffffffffff811115614d5957614d58613c29565b5b614d658782880161444e565b925050606085013567ffffffffffffffff811115614d8657614d85613c29565b5b614d9287828801614c99565b91505092959194509250565b600080600060608486031215614db757614db6613c24565b5b6000614dc586828701614153565b9350506020614dd686828701613d34565b925050604084013567ffffffffffffffff811115614df757614df6613c29565b5b614e0386828701613efa565b9150509250925092565b600080600080600060a08688031215614e2957614e28613c24565b5b6000614e3788828901614153565b9550506020614e4888828901614153565b945050604086013567ffffffffffffffff811115614e6957614e68613c29565b5b614e758882890161436d565b935050606086013567ffffffffffffffff811115614e9657614e95613c29565b5b614ea28882890161436d565b925050608086013567ffffffffffffffff811115614ec357614ec2613c29565b5b614ecf88828901613efa565b9150509295509295909350565b60008083601f840112614ef257614ef1613d82565b5b8235905067ffffffffffffffff811115614f0f57614f0e613d87565b5b602083019150836001820283011115614f2b57614f2a613d8c565b5b9250929050565b60008060008060608587031215614f4c57614f4b613c24565b5b6000614f5a87828801614153565b9450506020614f6b87828801613d34565b935050604085013567ffffffffffffffff811115614f8c57614f8b613c29565b5b614f9887828801614edc565b925092505092959194509250565b60008060408385031215614fbd57614fbc613c24565b5b6000614fcb85828601614153565b9250506020614fdc85828601613d34565b9150509250929050565b600080600080600060a0868803121561500257615001613c24565b5b600061501088828901614153565b955050602061502188828901614153565b945050604061503288828901613d34565b935050606061504388828901613d34565b925050608086013567ffffffffffffffff81111561506457615063613c29565b5b61507088828901613efa565b9150509295509295909350565b6000819050919050565b60006150a261509d6150988461410a565b61507d565b61410a565b9050919050565b60006150b482615087565b9050919050565b60006150c6826150a9565b9050919050565b6150d6816150bb565b82525050565b60006020820190506150f160008301846150cd565b92915050565b600081905092915050565b600061510e83856150f7565b935061511b838584613ea9565b82840190509392505050565b6000615134828486615102565b91508190509392505050565b61514981613d49565b82525050565b600060a0820190506151646000830188614537565b6151716020830187613cf3565b61517e6040830186615140565b61518b6060830185614537565b6151986080830184614537565b9695505050505050565b7f476f7665726e6f723a206f6e6c79476f7665726e616e63650000000000000000600082015250565b60006151d8601883614074565b91506151e3826151a2565b602082019050919050565b60006020820190508181036000830152615207816151cb565b9050919050565b7f4e487b7100000000000000000000000000000000000000000000000000000000600052602260045260246000fd5b6000600282049050600182168061525557607f821691505b6020821081036152685761526761520e565b5b50919050565b60006060820190506152836000830186614537565b6152906020830185613cf3565b61529d6040830184615140565b949350505050565b7f476f7665726e6f723a20756e6b6e6f776e2070726f706f73616c206964000000600082015250565b60006152db601d83614074565b91506152e6826152a5565b602082019050919050565b6000602082019050818103600083015261530a816152ce565b9050919050565b7f4e487b7100000000000000000000000000000000000000000000000000000000600052601160045260246000fd5b600061534b82613ce9565b915061535683613ce9565b925082820390508181111561536e5761536d615311565b5b92915050565b7f4e487b7100000000000000000000000000000000000000000000000000000000600052603260045260246000fd5b7f4f6e6c7920676f7665726e616e63652063616e20616363657373210000000000600082015250565b60006153d9601b83614074565b91506153e4826153a3565b602082019050919050565b60006020820190508181036000830152615408816153cc565b9050919050565b600061541a82613ce9565b915061542583613ce9565b925082820190508082111561543d5761543c615311565b5b92915050565b600082825260208201905092915050565b600061545f826146b4565b6154698185615443565b9350615474836146d0565b8060005b838110156154a557815161548c88826146ef565b975061549783614707565b925050600181019050615478565b5085935050505092915050565b600082825260208201905092915050565b60006154ce82614772565b6154d881856154b2565b93506154e38361478e565b8060005b838110156155145781516154fb888261479e565b9750615506836147b6565b9250506001810190506154e7565b5085935050505092915050565b600082825260208201905092915050565b600061553d82614821565b6155478185615521565b9350836020820285016155598561483d565b8060005b85811015615595578484038952815161557685826148a2565b9450615581836148b6565b925060208a0199505060018101905061555d565b50829750879550505050505092915050565b600060808201905081810360008301526155c18187615454565b905081810360208301526155d581866154c3565b905081810360408301526155e98185615532565b90506155f86060830184614537565b95945050505050565b7f53616665436173743a2076616c756520646f65736e27742066697420696e203260008201527f3234206269747300000000000000000000000000000000000000000000000000602082015250565b600061565d602783614074565b915061566882615601565b604082019050919050565b6000602082019050818103600083015261568c81615650565b9050919050565b7f53616665436173743a2076616c756520646f65736e27742066697420696e203360008201527f3220626974730000000000000000000000000000000000000000000000000000602082015250565b60006156ef602683614074565b91506156fa82615693565b604082019050919050565b6000602082019050818103600083015261571e816156e2565b9050919050565b7f476f7665726e6f723a20766f7465206e6f742063757272656e746c792061637460008201527f6976650000000000000000000000000000000000000000000000000000000000602082015250565b6000615781602383614074565b915061578c82615725565b604082019050919050565b600060208201905081810360008301526157b081615774565b9050919050565b60006080820190506157cc6000830187613cf3565b6157d96020830186615140565b6157e66040830185613cf3565b81810360608301526157f881846140af565b905095945050505050565b600082825260208201905092915050565b600061581f8261484d565b6158298185615803565b9350615839818560208601614085565b61584281613dec565b840191505092915050565b600060a0820190506158626000830188613cf3565b61586f6020830187615140565b61587c6040830186613cf3565b818103606083015261588e81856140af565b905081810360808301526158a28184615814565b90509695505050505050565b7f476f7665726e6f72566f74657351756f72756d4672616374696f6e3a2071756f60008201527f72756d4e756d657261746f72206f7665722071756f72756d44656e6f6d696e6160208201527f746f720000000000000000000000000000000000000000000000000000000000604082015250565b6000615930604383614074565b915061593b826158ae565b606082019050919050565b6000602082019050818103600083015261595f81615923565b9050919050565b600060408201905061597b6000830185613cf3565b6159886020830184613cf3565b9392505050565b7f476f7665726e6f723a2070726f706f73616c206e6f742073756363657373667560008201527f6c00000000000000000000000000000000000000000000000000000000000000602082015250565b60006159eb602183614074565b91506159f68261598f565b604082019050919050565b60006020820190508181036000830152615a1a816159de565b9050919050565b7f476f7665726e6f723a2070726f706f73616c206e6f7420616374697665000000600082015250565b6000615a57601d83614074565b9150615a6282615a21565b602082019050919050565b60006020820190508181036000830152615a8681615a4a565b9050919050565b7f436865636b706f696e74733a20626c6f636b206e6f7420796574206d696e6564600082015250565b6000615ac3602083614074565b9150615ace82615a8d565b602082019050919050565b60006020820190508181036000830152615af281615ab6565b9050919050565b7f476f7665726e6f723a2070726f706f73657220766f7465732062656c6f77207060008201527f726f706f73616c207468726573686f6c64000000000000000000000000000000602082015250565b6000615b55603183614074565b9150615b6082615af9565b604082019050919050565b60006020820190508181036000830152615b8481615b48565b9050919050565b7f476f7665726e6f723a20696e76616c69642070726f706f73616c206c656e677460008201527f6800000000000000000000000000000000000000000000000000000000000000602082015250565b6000615be7602183614074565b9150615bf282615b8b565b604082019050919050565b60006020820190508181036000830152615c1681615bda565b9050919050565b7f476f7665726e6f723a20656d7074792070726f706f73616c0000000000000000600082015250565b6000615c53601883614074565b9150615c5e82615c1d565b602082019050919050565b60006020820190508181036000830152615c8281615c46565b9050919050565b7f476f7665726e6f723a2070726f706f73616c20616c726561647920657869737460008201527f7300000000000000000000000000000000000000000000000000000000000000602082015250565b6000615ce5602183614074565b9150615cf082615c89565b604082019050919050565b60006020820190508181036000830152615d1481615cd8565b9050919050565b600067ffffffffffffffff82169050919050565b6000615d3a82615d1b565b9150615d4583615d1b565b9250828201905067ffffffffffffffff811115615d6557615d64615311565b5b92915050565b600081519050919050565b600082825260208201905092915050565b6000819050602082019050919050565b600082825260208201905092915050565b6000615db382614069565b615dbd8185615d97565b9350615dcd818560208601614085565b615dd681613dec565b840191505092915050565b6000615ded8383615da8565b905092915050565b6000602082019050919050565b6000615e0d82615d6b565b615e178185615d76565b935083602082028501615e2985615d87565b8060005b85811015615e655784840389528151615e468582615de1565b9450615e5183615df5565b925060208a01995050600181019050615e2d565b50829750879550505050505092915050565b6000615e92615e8d615e8884615d1b565b61507d565b613ce9565b9050919050565b615ea281615e77565b82525050565b600061012082019050615ebe600083018c613cf3565b615ecb602083018b614a40565b8181036040830152615edd818a615454565b90508181036060830152615ef181896154c3565b90508181036080830152615f058188615e02565b905081810360a0830152615f198187615532565b9050615f2860c0830186615e99565b615f3560e0830185615e99565b818103610100830152615f4881846140af565b90509a9950505050505050505050565b6000604082019050615f6d6000830185614a40565b615f7a6020830184613cf3565b9392505050565b600081519050615f9081613d1d565b92915050565b600060208284031215615fac57615fab613c24565b5b6000615fba84828501615f81565b91505092915050565b6000615fce82613ce9565b9150615fd983613ce9565b9250828202615fe781613ce9565b91508282048414831517615ffe57615ffd615311565b5b5092915050565b7f4e487b7100000000000000000000000000000000000000000000000000000000600052601260045260246000fd5b600061603f82613ce9565b915061604a83613ce9565b92508261605a57616059616005565b5b828204905092915050565b7f436865636b706f696e743a20696e76616c6964206b6579000000000000000000600082015250565b600061609b601783614074565b91506160a682616065565b602082019050919050565b600060208201905081810360008301526160ca8161608e565b9050919050565b600081905092915050565b7f1901000000000000000000000000000000000000000000000000000000000000600082015250565b60006161126002836160d1565b915061611d826160dc565b600282019050919050565b6000819050919050565b61614361613e82613f28565b616128565b82525050565b600061615482616105565b91506161608285616132565b6020820191506161708284616132565b6020820191508190509392505050565b60006080820190506161956000830187614537565b6161a26020830186615140565b6161af6040830185614537565b6161bc6060830184614537565b95945050505050565b7f45434453413a20696e76616c6964207369676e61747572650000000000000000600082015250565b60006161fb601883614074565b9150616206826161c5565b602082019050919050565b6000602082019050818103600083015261622a816161ee565b9050919050565b7f45434453413a20696e76616c6964207369676e6174757265206c656e67746800600082015250565b6000616267601f83614074565b915061627282616231565b602082019050919050565b600060208201905081810360008301526162968161625a565b9050919050565b7f45434453413a20696e76616c6964207369676e6174757265202773272076616c60008201527f7565000000000000000000000000000000000000000000000000000000000000602082015250565b60006162f9602283614074565b91506163048261629d565b604082019050919050565b60006020820190508181036000830152616328816162ec565b9050919050565b7f476f7665726e6f72566f74696e6753696d706c653a20766f746520616c72656160008201527f6479206361737400000000000000000000000000000000000000000000000000602082015250565b600061638b602783614074565b91506163968261632f565b604082019050919050565b600060208201905081810360008301526163ba8161637e565b9050919050565b7f476f7665726e6f72566f74696e6753696d706c653a20696e76616c696420766160008201527f6c756520666f7220656e756d20566f7465547970650000000000000000000000602082015250565b600061641d603583614074565b9150616428826163c1565b604082019050919050565b6000602082019050818103600083015261644c81616410565b9050919050565b600061645e82613ce9565b91507fffffffffffffffffffffffffffffffffffffffffffffffffffffffffffffffff82036164905761648f615311565b5b600182019050919050565b60006164a68261484d565b6164b081856150f7565b93506164c0818560208601614085565b80840191505092915050565b60006164d8828461649b565b915081905092915050565b7f53616665436173743a2076616c756520646f65736e27742066697420696e203660008201527f3420626974730000000000000000000000000000000000000000000000000000602082015250565b600061653f602683614074565b915061654a826164e3565b604082019050919050565b6000602082019050818103600083015261656e81616532565b9050919050565b600060a08201905061658a6000830188614537565b6165976020830187614537565b6165a46040830186614537565b6165b16060830185613cf3565b6165be6080830184614a40565b969550505050505056fe476f7665726e6f723a2072656c617920726576657274656420776974686f7574206d657373616765476f7665726e6f723a2063616c6c20726576657274656420776974686f7574206d657373616765a264697066735822122012112e3697af11000e15d7ff7a2bf74b833560d261557c321e353be632f8cdf864736f6c63430008120033",
  "devdoc": {
    "errors": {
      "Empty()": [
        {
          "details": "An operation (e.g. {front}) couldn't be completed due to the queue being empty."
        }
      ]
    },
    "events": {
      "ProposalCanceled(uint256)": {
        "details": "Emitted when a proposal is canceled."
      },
      "ProposalCreated(uint256,address,address[],uint256[],string[],bytes[],uint256,uint256,string)": {
        "details": "Emitted when a proposal is created."
      },
      "ProposalExecuted(uint256)": {
        "details": "Emitted when a proposal is executed."
      },
      "VoteCast(address,uint256,uint8,uint256,string)": {
        "details": "Emitted when a vote is cast without params. Note: `support` values should be seen as buckets. Their interpretation depends on the voting module used."
      },
      "VoteCastWithParams(address,uint256,uint8,uint256,string,bytes)": {
        "details": "Emitted when a vote is cast with params. Note: `support` values should be seen as buckets. Their interpretation depends on the voting module used. `params` are additional encoded parameters. Their intepepretation also depends on the voting module used."
      }
    },
    "kind": "dev",
    "methods": {
      "COUNTING_MODE()": {
        "details": "See {IGovernor-COUNTING_MODE}."
      },
      "castVote(uint256,uint8)": {
        "details": "See {IGovernor-castVote}."
      },
      "castVoteBySig(uint256,uint8,uint8,bytes32,bytes32)": {
        "details": "See {IGovernor-castVoteBySig}."
      },
      "castVoteWithReason(uint256,uint8,string)": {
        "details": "See {IGovernor-castVoteWithReason}."
      },
      "castVoteWithReasonAndParams(uint256,uint8,string,bytes)": {
        "details": "See {IGovernor-castVoteWithReasonAndParams}."
      },
      "castVoteWithReasonAndParamsBySig(uint256,uint8,string,bytes,uint8,bytes32,bytes32)": {
        "details": "See {IGovernor-castVoteWithReasonAndParamsBySig}."
      },
      "getVotes(address,uint256)": {
        "details": "See {IGovernor-getVotes}."
      },
      "getVotesWithParams(address,uint256,bytes)": {
        "details": "See {IGovernor-getVotesWithParams}."
      },
      "hasVoted(uint256,address)": {
        "details": "See {IGovernor-hasVoted}."
      },
      "hashProposal(address[],uint256[],bytes[],bytes32)": {
        "details": "See {IGovernor-hashProposal}. The proposal id is produced by hashing the ABI encoded `targets` array, the `values` array, the `calldatas` array and the descriptionHash (bytes32 which itself is the keccak256 hash of the description string). This proposal id can be produced from the proposal data which is part of the {ProposalCreated} event. It can even be computed in advance, before the proposal is submitted. Note that the chainId and the governor address are not part of the proposal id computation. Consequently, the same proposal (with same operation and same description) will have the same id if submitted on multiple governors across multiple networks. This also means that in order to execute the same operation twice (on the same governor) the proposer will have to change the description in order to avoid proposal id conflicts."
      },
      "name()": {
        "details": "See {IGovernor-name}."
      },
      "onERC1155BatchReceived(address,address,uint256[],uint256[],bytes)": {
        "details": "See {IERC1155Receiver-onERC1155BatchReceived}."
      },
      "onERC1155Received(address,address,uint256,uint256,bytes)": {
        "details": "See {IERC1155Receiver-onERC1155Received}."
      },
      "onERC721Received(address,address,uint256,bytes)": {
        "details": "See {IERC721Receiver-onERC721Received}."
      },
      "proposalDeadline(uint256)": {
        "details": "See {IGovernor-proposalDeadline}."
      },
      "proposalSnapshot(uint256)": {
        "details": "See {IGovernor-proposalSnapshot}."
      },
      "proposalThreshold()": {
        "details": "Part of the Governor Bravo's interface: _\"The number of votes required in order for a voter to become a proposer\"_."
      },
      "proposalVotes(uint256)": {
        "details": "Accessor to the internal vote counts."
      },
      "propose(address[],uint256[],bytes[],string)": {
        "details": "See {IGovernor-propose}."
      },
      "quorumDenominator()": {
        "details": "Returns the quorum denominator. Defaults to 100, but may be overridden."
      },
      "quorumNumerator()": {
        "details": "Returns the current quorum numerator. See {quorumDenominator}."
      },
      "quorumNumerator(uint256)": {
        "details": "Returns the quorum numerator at a specific block number. See {quorumDenominator}."
      },
      "relay(address,uint256,bytes)": {
        "details": "Relays a transaction or function call to an arbitrary target. In cases where the governance executor is some contract other than the governor itself, like when using a timelock, this function can be invoked in a governance proposal to recover tokens or Ether that was sent to the governor contract by mistake. Note that if the executor is simply the governor itself, use of `relay` is redundant."
      },
      "state(uint256)": {
        "details": "See {IGovernor-state}."
      },
      "supportsInterface(bytes4)": {
        "details": "See {IERC165-supportsInterface}."
      },
      "updateQuorumNumerator(uint256)": {
        "details": "Changes the quorum numerator. Emits a {QuorumNumeratorUpdated} event. Requirements: - Must be called through a governance proposal. - New numerator must be smaller or equal to the denominator."
      },
      "version()": {
        "details": "See {IGovernor-version}."
      },
      "votingDelay()": {
        "details": "Delay, in number of block, between the proposal is created and the vote starts. This can be increassed to leave time for users to buy voting power, or delegate it, before the voting of a proposal starts."
      },
      "votingPeriod()": {
        "details": "Delay, in number of blocks, between the vote start and vote ends. NOTE: The {votingDelay} can delay the start of the vote. This must be considered when setting the voting duration compared to the voting delay."
      }
    },
    "version": 1
  },
  "userdoc": {
    "kind": "user",
    "methods": {
      "votingDelay()": {
        "notice": "module:user-config"
      },
      "votingPeriod()": {
        "notice": "module:user-config"
      }
    },
    "version": 1
  },
  "storageLayout": {
    "storage": [
      {
        "astId": 191,
        "contract": "contracts/Governance.sol:Governance",
        "label": "_name",
        "offset": 0,
        "slot": "0",
        "type": "t_string_storage"
      },
      {
        "astId": 196,
        "contract": "contracts/Governance.sol:Governance",
        "label": "_proposals",
        "offset": 0,
        "slot": "1",
        "type": "t_mapping(t_uint256,t_struct(ProposalCore)189_storage)"
      },
      {
        "astId": 199,
        "contract": "contracts/Governance.sol:Governance",
        "label": "_governanceCall",
        "offset": 0,
        "slot": "2",
        "type": "t_struct(Bytes32Deque)9102_storage"
      },
      {
        "astId": 1762,
        "contract": "contracts/Governance.sol:Governance",
        "label": "_proposalVotes",
        "offset": 0,
        "slot": "4",
        "type": "t_mapping(t_uint256,t_struct(ProposalVote)1757_storage)"
      },
      {
        "astId": 2018,
        "contract": "contracts/Governance.sol:Governance",
        "label": "_quorumNumerator",
        "offset": 0,
        "slot": "5",
        "type": "t_uint256"
      },
      {
        "astId": 2021,
        "contract": "contracts/Governance.sol:Governance",
        "label": "_quorumNumeratorHistory",
        "offset": 0,
        "slot": "6",
        "type": "t_struct(History)4280_storage"
      },
      {
        "astId": 9570,
        "contract": "contracts/Governance.sol:Governance",
        "label": "automation",
        "offset": 0,
        "slot": "7",
        "type": "t_address"
      },
      {
        "astId": 9573,
        "contract": "contracts/Governance.sol:Governance",
        "label": "currentProposal",
        "offset": 0,
        "slot": "8",
        "type": "t_struct(CurrentProposal)9856_storage"
      },
      {
        "astId": 9576,
        "contract": "contracts/Governance.sol:Governance",
        "label": "executionDelay",
        "offset": 0,
        "slot": "14",
        "type": "t_uint256"
      }
    ],
    "types": {
      "t_address": {
        "encoding": "inplace",
        "label": "address",
        "numberOfBytes": "20"
      },
      "t_array(t_address)dyn_storage": {
        "base": "t_address",
        "encoding": "dynamic_array",
        "label": "address[]",
        "numberOfBytes": "32"
      },
      "t_array(t_bytes_storage)dyn_storage": {
        "base": "t_bytes_storage",
        "encoding": "dynamic_array",
        "label": "bytes[]",
        "numberOfBytes": "32"
      },
      "t_array(t_struct(Checkpoint)4285_storage)dyn_storage": {
        "base": "t_struct(Checkpoint)4285_storage",
        "encoding": "dynamic_array",
        "label": "struct Checkpoints.Checkpoint[]",
        "numberOfBytes": "32"
      },
      "t_array(t_uint256)dyn_storage": {
        "base": "t_uint256",
        "encoding": "dynamic_array",
        "label": "uint256[]",
        "numberOfBytes": "32"
      },
      "t_bool": {
        "encoding": "inplace",
        "label": "bool",
        "numberOfBytes": "1"
      },
      "t_bytes32": {
        "encoding": "inplace",
        "label": "bytes32",
        "numberOfBytes": "32"
      },
      "t_bytes_storage": {
        "encoding": "bytes",
        "label": "bytes",
        "numberOfBytes": "32"
      },
      "t_int128": {
        "encoding": "inplace",
        "label": "int128",
        "numberOfBytes": "16"
      },
      "t_mapping(t_address,t_bool)": {
        "encoding": "mapping",
        "key": "t_address",
        "label": "mapping(address => bool)",
        "numberOfBytes": "32",
        "value": "t_bool"
      },
      "t_mapping(t_int128,t_bytes32)": {
        "encoding": "mapping",
        "key": "t_int128",
        "label": "mapping(int128 => bytes32)",
        "numberOfBytes": "32",
        "value": "t_bytes32"
      },
      "t_mapping(t_uint256,t_struct(ProposalCore)189_storage)": {
        "encoding": "mapping",
        "key": "t_uint256",
        "label": "mapping(uint256 => struct Governor.ProposalCore)",
        "numberOfBytes": "32",
        "value": "t_struct(ProposalCore)189_storage"
      },
      "t_mapping(t_uint256,t_struct(ProposalVote)1757_storage)": {
        "encoding": "mapping",
        "key": "t_uint256",
        "label": "mapping(uint256 => struct GovernorCountingSimple.ProposalVote)",
        "numberOfBytes": "32",
        "value": "t_struct(ProposalVote)1757_storage"
      },
      "t_string_storage": {
        "encoding": "bytes",
        "label": "string",
        "numberOfBytes": "32"
      },
      "t_struct(BlockNumber)6023_storage": {
        "encoding": "inplace",
        "label": "struct Timers.BlockNumber",
        "members": [
          {
            "astId": 6022,
            "contract": "contracts/Governance.sol:Governance",
            "label": "_deadline",
            "offset": 0,
            "slot": "0",
            "type": "t_uint64"
          }
        ],
        "numberOfBytes": "32"
      },
      "t_struct(Bytes32Deque)9102_storage": {
        "encoding": "inplace",
        "label": "struct DoubleEndedQueue.Bytes32Deque",
        "members": [
          {
            "astId": 9095,
            "contract": "contracts/Governance.sol:Governance",
            "label": "_begin",
            "offset": 0,
            "slot": "0",
            "type": "t_int128"
          },
          {
            "astId": 9097,
            "contract": "contracts/Governance.sol:Governance",
            "label": "_end",
            "offset": 16,
            "slot": "0",
            "type": "t_int128"
          },
          {
            "astId": 9101,
            "contract": "contracts/Governance.sol:Governance",
            "label": "_data",
            "offset": 0,
            "slot": "1",
            "type": "t_mapping(t_int128,t_bytes32)"
          }
        ],
        "numberOfBytes": "64"
      },
      "t_struct(Checkpoint)4285_storage": {
        "encoding": "inplace",
        "label": "struct Checkpoints.Checkpoint",
        "members": [
          {
            "astId": 4282,
            "contract": "contracts/Governance.sol:Governance",
            "label": "_blockNumber",
            "offset": 0,
            "slot": "0",
            "type": "t_uint32"
          },
          {
            "astId": 4284,
            "contract": "contracts/Governance.sol:Governance",
            "label": "_value",
            "offset": 4,
            "slot": "0",
            "type": "t_uint224"
          }
        ],
        "numberOfBytes": "32"
      },
      "t_struct(CurrentProposal)9856_storage": {
        "encoding": "inplace",
        "label": "struct IGovernance.CurrentProposal",
        "members": [
          {
            "astId": 9842,
            "contract": "contracts/Governance.sol:Governance",
            "label": "proposalId",
            "offset": 0,
            "slot": "0",
            "type": "t_uint256"
          },
          {
            "astId": 9844,
            "contract": "contracts/Governance.sol:Governance",
            "label": "executionTime",
            "offset": 0,
            "slot": "1",
            "type": "t_uint256"
          },
          {
            "astId": 9847,
            "contract": "contracts/Governance.sol:Governance",
            "label": "targets",
            "offset": 0,
            "slot": "2",
            "type": "t_array(t_address)dyn_storage"
          },
          {
            "astId": 9850,
            "contract": "contracts/Governance.sol:Governance",
            "label": "values",
            "offset": 0,
            "slot": "3",
            "type": "t_array(t_uint256)dyn_storage"
          },
          {
            "astId": 9853,
            "contract": "contracts/Governance.sol:Governance",
            "label": "calldatas",
            "offset": 0,
            "slot": "4",
            "type": "t_array(t_bytes_storage)dyn_storage"
          },
          {
            "astId": 9855,
            "contract": "contracts/Governance.sol:Governance",
            "label": "description",
            "offset": 0,
            "slot": "5",
            "type": "t_bytes32"
          }
        ],
        "numberOfBytes": "192"
      },
      "t_struct(History)4280_storage": {
        "encoding": "inplace",
        "label": "struct Checkpoints.History",
        "members": [
          {
            "astId": 4279,
            "contract": "contracts/Governance.sol:Governance",
            "label": "_checkpoints",
            "offset": 0,
            "slot": "0",
            "type": "t_array(t_struct(Checkpoint)4285_storage)dyn_storage"
          }
        ],
        "numberOfBytes": "32"
      },
      "t_struct(ProposalCore)189_storage": {
        "encoding": "inplace",
        "label": "struct Governor.ProposalCore",
        "members": [
          {
            "astId": 181,
            "contract": "contracts/Governance.sol:Governance",
            "label": "voteStart",
            "offset": 0,
            "slot": "0",
            "type": "t_struct(BlockNumber)6023_storage"
          },
          {
            "astId": 184,
            "contract": "contracts/Governance.sol:Governance",
            "label": "voteEnd",
            "offset": 0,
            "slot": "1",
            "type": "t_struct(BlockNumber)6023_storage"
          },
          {
            "astId": 186,
            "contract": "contracts/Governance.sol:Governance",
            "label": "executed",
            "offset": 0,
            "slot": "2",
            "type": "t_bool"
          },
          {
            "astId": 188,
            "contract": "contracts/Governance.sol:Governance",
            "label": "canceled",
            "offset": 1,
            "slot": "2",
            "type": "t_bool"
          }
        ],
        "numberOfBytes": "96"
      },
      "t_struct(ProposalVote)1757_storage": {
        "encoding": "inplace",
        "label": "struct GovernorCountingSimple.ProposalVote",
        "members": [
          {
            "astId": 1748,
            "contract": "contracts/Governance.sol:Governance",
            "label": "againstVotes",
            "offset": 0,
            "slot": "0",
            "type": "t_uint256"
          },
          {
            "astId": 1750,
            "contract": "contracts/Governance.sol:Governance",
            "label": "forVotes",
            "offset": 0,
            "slot": "1",
            "type": "t_uint256"
          },
          {
            "astId": 1752,
            "contract": "contracts/Governance.sol:Governance",
            "label": "abstainVotes",
            "offset": 0,
            "slot": "2",
            "type": "t_uint256"
          },
          {
            "astId": 1756,
            "contract": "contracts/Governance.sol:Governance",
            "label": "hasVoted",
            "offset": 0,
            "slot": "3",
            "type": "t_mapping(t_address,t_bool)"
          }
        ],
        "numberOfBytes": "128"
      },
      "t_uint224": {
        "encoding": "inplace",
        "label": "uint224",
        "numberOfBytes": "28"
      },
      "t_uint256": {
        "encoding": "inplace",
        "label": "uint256",
        "numberOfBytes": "32"
      },
      "t_uint32": {
        "encoding": "inplace",
        "label": "uint32",
        "numberOfBytes": "4"
      },
      "t_uint64": {
        "encoding": "inplace",
        "label": "uint64",
        "numberOfBytes": "8"
      }
    }
  }
}