{
  "address": "0xf7bC87d78B4F2D5E95e8B2af63119B8818ef132e",
  "abi": [
    {
      "inputs": [
        {
          "internalType": "contract IVotes",
          "name": "_token",
          "type": "address"
        },
        {
          "internalType": "address",
          "name": "_automation",
          "type": "address"
        }
      ],
      "stateMutability": "nonpayable",
      "type": "constructor"
    },
    {
      "inputs": [],
      "name": "Empty",
      "type": "error"
    },
    {
      "anonymous": false,
      "inputs": [
        {
          "indexed": false,
          "internalType": "uint256",
          "name": "proposalId",
          "type": "uint256"
        }
      ],
      "name": "ProposalCanceled",
      "type": "event"
    },
    {
      "anonymous": false,
      "inputs": [
        {
          "indexed": false,
          "internalType": "uint256",
          "name": "proposalId",
          "type": "uint256"
        },
        {
          "indexed": false,
          "internalType": "address",
          "name": "proposer",
          "type": "address"
        },
        {
          "indexed": false,
          "internalType": "address[]",
          "name": "targets",
          "type": "address[]"
        },
        {
          "indexed": false,
          "internalType": "uint256[]",
          "name": "values",
          "type": "uint256[]"
        },
        {
          "indexed": false,
          "internalType": "string[]",
          "name": "signatures",
          "type": "string[]"
        },
        {
          "indexed": false,
          "internalType": "bytes[]",
          "name": "calldatas",
          "type": "bytes[]"
        },
        {
          "indexed": false,
          "internalType": "uint256",
          "name": "startBlock",
          "type": "uint256"
        },
        {
          "indexed": false,
          "internalType": "uint256",
          "name": "endBlock",
          "type": "uint256"
        },
        {
          "indexed": false,
          "internalType": "string",
          "name": "description",
          "type": "string"
        }
      ],
      "name": "ProposalCreated",
      "type": "event"
    },
    {
      "anonymous": false,
      "inputs": [
        {
          "indexed": false,
          "internalType": "uint256",
          "name": "proposalId",
          "type": "uint256"
        }
      ],
      "name": "ProposalExecuted",
      "type": "event"
    },
    {
      "anonymous": false,
      "inputs": [
        {
          "indexed": false,
          "internalType": "uint256",
          "name": "oldQuorumNumerator",
          "type": "uint256"
        },
        {
          "indexed": false,
          "internalType": "uint256",
          "name": "newQuorumNumerator",
          "type": "uint256"
        }
      ],
      "name": "QuorumNumeratorUpdated",
      "type": "event"
    },
    {
      "anonymous": false,
      "inputs": [
        {
          "indexed": true,
          "internalType": "address",
          "name": "voter",
          "type": "address"
        },
        {
          "indexed": false,
          "internalType": "uint256",
          "name": "proposalId",
          "type": "uint256"
        },
        {
          "indexed": false,
          "internalType": "uint8",
          "name": "support",
          "type": "uint8"
        },
        {
          "indexed": false,
          "internalType": "uint256",
          "name": "weight",
          "type": "uint256"
        },
        {
          "indexed": false,
          "internalType": "string",
          "name": "reason",
          "type": "string"
        }
      ],
      "name": "VoteCast",
      "type": "event"
    },
    {
      "anonymous": false,
      "inputs": [
        {
          "indexed": true,
          "internalType": "address",
          "name": "voter",
          "type": "address"
        },
        {
          "indexed": false,
          "internalType": "uint256",
          "name": "proposalId",
          "type": "uint256"
        },
        {
          "indexed": false,
          "internalType": "uint8",
          "name": "support",
          "type": "uint8"
        },
        {
          "indexed": false,
          "internalType": "uint256",
          "name": "weight",
          "type": "uint256"
        },
        {
          "indexed": false,
          "internalType": "string",
          "name": "reason",
          "type": "string"
        },
        {
          "indexed": false,
          "internalType": "bytes",
          "name": "params",
          "type": "bytes"
        }
      ],
      "name": "VoteCastWithParams",
      "type": "event"
    },
    {
      "inputs": [],
      "name": "BALLOT_TYPEHASH",
      "outputs": [
        {
          "internalType": "bytes32",
          "name": "",
          "type": "bytes32"
        }
      ],
      "stateMutability": "view",
      "type": "function"
    },
    {
      "inputs": [],
      "name": "COUNTING_MODE",
      "outputs": [
        {
          "internalType": "string",
          "name": "",
          "type": "string"
        }
      ],
      "stateMutability": "pure",
      "type": "function"
    },
    {
      "inputs": [],
      "name": "EXTENDED_BALLOT_TYPEHASH",
      "outputs": [
        {
          "internalType": "bytes32",
          "name": "",
          "type": "bytes32"
        }
      ],
      "stateMutability": "view",
      "type": "function"
    },
    {
      "inputs": [],
      "name": "automation",
      "outputs": [
        {
          "internalType": "address",
          "name": "",
          "type": "address"
        }
      ],
      "stateMutability": "view",
      "type": "function"
    },
    {
      "inputs": [
        {
          "internalType": "address[]",
          "name": "targets",
          "type": "address[]"
        },
        {
          "internalType": "uint256[]",
          "name": "values",
          "type": "uint256[]"
        },
        {
          "internalType": "bytes[]",
          "name": "calldatas",
          "type": "bytes[]"
        },
        {
          "internalType": "bytes32",
          "name": "descriptionHash",
          "type": "bytes32"
        }
      ],
      "name": "cancel",
      "outputs": [],
      "stateMutability": "nonpayable",
      "type": "function"
    },
    {
      "inputs": [
        {
          "internalType": "uint256",
          "name": "proposalId",
          "type": "uint256"
        },
        {
          "internalType": "uint8",
          "name": "support",
          "type": "uint8"
        }
      ],
      "name": "castVote",
      "outputs": [
        {
          "internalType": "uint256",
          "name": "",
          "type": "uint256"
        }
      ],
      "stateMutability": "nonpayable",
      "type": "function"
    },
    {
      "inputs": [
        {
          "internalType": "uint256",
          "name": "proposalId",
          "type": "uint256"
        },
        {
          "internalType": "uint8",
          "name": "support",
          "type": "uint8"
        },
        {
          "internalType": "uint8",
          "name": "v",
          "type": "uint8"
        },
        {
          "internalType": "bytes32",
          "name": "r",
          "type": "bytes32"
        },
        {
          "internalType": "bytes32",
          "name": "s",
          "type": "bytes32"
        }
      ],
      "name": "castVoteBySig",
      "outputs": [
        {
          "internalType": "uint256",
          "name": "",
          "type": "uint256"
        }
      ],
      "stateMutability": "nonpayable",
      "type": "function"
    },
    {
      "inputs": [
        {
          "internalType": "uint256",
          "name": "proposalId",
          "type": "uint256"
        },
        {
          "internalType": "uint8",
          "name": "support",
          "type": "uint8"
        },
        {
          "internalType": "string",
          "name": "reason",
          "type": "string"
        }
      ],
      "name": "castVoteWithReason",
      "outputs": [
        {
          "internalType": "uint256",
          "name": "",
          "type": "uint256"
        }
      ],
      "stateMutability": "nonpayable",
      "type": "function"
    },
    {
      "inputs": [
        {
          "internalType": "uint256",
          "name": "proposalId",
          "type": "uint256"
        },
        {
          "internalType": "uint8",
          "name": "support",
          "type": "uint8"
        },
        {
          "internalType": "string",
          "name": "reason",
          "type": "string"
        },
        {
          "internalType": "bytes",
          "name": "params",
          "type": "bytes"
        }
      ],
      "name": "castVoteWithReasonAndParams",
      "outputs": [
        {
          "internalType": "uint256",
          "name": "",
          "type": "uint256"
        }
      ],
      "stateMutability": "nonpayable",
      "type": "function"
    },
    {
      "inputs": [
        {
          "internalType": "uint256",
          "name": "proposalId",
          "type": "uint256"
        },
        {
          "internalType": "uint8",
          "name": "support",
          "type": "uint8"
        },
        {
          "internalType": "string",
          "name": "reason",
          "type": "string"
        },
        {
          "internalType": "bytes",
          "name": "params",
          "type": "bytes"
        },
        {
          "internalType": "uint8",
          "name": "v",
          "type": "uint8"
        },
        {
          "internalType": "bytes32",
          "name": "r",
          "type": "bytes32"
        },
        {
          "internalType": "bytes32",
          "name": "s",
          "type": "bytes32"
        }
      ],
      "name": "castVoteWithReasonAndParamsBySig",
      "outputs": [
        {
          "internalType": "uint256",
          "name": "",
          "type": "uint256"
        }
      ],
      "stateMutability": "nonpayable",
      "type": "function"
    },
    {
      "inputs": [],
      "name": "currentProposal",
      "outputs": [
        {
          "internalType": "uint256",
          "name": "proposalId",
          "type": "uint256"
        },
        {
          "internalType": "uint256",
          "name": "executionTime",
          "type": "uint256"
        },
        {
          "internalType": "bytes32",
          "name": "description",
          "type": "bytes32"
        }
      ],
      "stateMutability": "view",
      "type": "function"
    },
    {
      "inputs": [
        {
          "internalType": "address[]",
          "name": "targets",
          "type": "address[]"
        },
        {
          "internalType": "uint256[]",
          "name": "values",
          "type": "uint256[]"
        },
        {
          "internalType": "bytes[]",
          "name": "calldatas",
          "type": "bytes[]"
        },
        {
          "internalType": "bytes32",
          "name": "descriptionHash",
          "type": "bytes32"
        }
      ],
      "name": "execute",
      "outputs": [
        {
          "internalType": "uint256",
          "name": "",
          "type": "uint256"
        }
      ],
      "stateMutability": "payable",
      "type": "function"
    },
    {
      "inputs": [],
      "name": "executionDelay",
      "outputs": [
        {
          "internalType": "uint256",
          "name": "",
          "type": "uint256"
        }
      ],
      "stateMutability": "view",
      "type": "function"
    },
    {
      "inputs": [],
      "name": "getCurrentProposal",
      "outputs": [
        {
          "components": [
            {
              "internalType": "uint256",
              "name": "proposalId",
              "type": "uint256"
            },
            {
              "internalType": "uint256",
              "name": "executionTime",
              "type": "uint256"
            },
            {
              "internalType": "address[]",
              "name": "targets",
              "type": "address[]"
            },
            {
              "internalType": "uint256[]",
              "name": "values",
              "type": "uint256[]"
            },
            {
              "internalType": "bytes[]",
              "name": "calldatas",
              "type": "bytes[]"
            },
            {
              "internalType": "bytes32",
              "name": "description",
              "type": "bytes32"
            }
          ],
          "internalType": "struct IGovernance.CurrentProposal",
          "name": "",
          "type": "tuple"
        }
      ],
      "stateMutability": "view",
      "type": "function"
    },
    {
      "inputs": [
        {
          "internalType": "address",
          "name": "account",
          "type": "address"
        },
        {
          "internalType": "uint256",
          "name": "blockNumber",
          "type": "uint256"
        }
      ],
      "name": "getVotes",
      "outputs": [
        {
          "internalType": "uint256",
          "name": "",
          "type": "uint256"
        }
      ],
      "stateMutability": "view",
      "type": "function"
    },
    {
      "inputs": [
        {
          "internalType": "address",
          "name": "account",
          "type": "address"
        },
        {
          "internalType": "uint256",
          "name": "blockNumber",
          "type": "uint256"
        },
        {
          "internalType": "bytes",
          "name": "params",
          "type": "bytes"
        }
      ],
      "name": "getVotesWithParams",
      "outputs": [
        {
          "internalType": "uint256",
          "name": "",
          "type": "uint256"
        }
      ],
      "stateMutability": "view",
      "type": "function"
    },
    {
      "inputs": [
        {
          "internalType": "uint256",
          "name": "proposalId",
          "type": "uint256"
        },
        {
          "internalType": "address",
          "name": "account",
          "type": "address"
        }
      ],
      "name": "hasVoted",
      "outputs": [
        {
          "internalType": "bool",
          "name": "",
          "type": "bool"
        }
      ],
      "stateMutability": "view",
      "type": "function"
    },
    {
      "inputs": [
        {
          "internalType": "address[]",
          "name": "targets",
          "type": "address[]"
        },
        {
          "internalType": "uint256[]",
          "name": "values",
          "type": "uint256[]"
        },
        {
          "internalType": "bytes[]",
          "name": "calldatas",
          "type": "bytes[]"
        },
        {
          "internalType": "bytes32",
          "name": "descriptionHash",
          "type": "bytes32"
        }
      ],
      "name": "hashProposal",
      "outputs": [
        {
          "internalType": "uint256",
          "name": "",
          "type": "uint256"
        }
      ],
      "stateMutability": "pure",
      "type": "function"
    },
    {
      "inputs": [],
      "name": "isReadyToExecution",
      "outputs": [
        {
          "internalType": "bool",
          "name": "",
          "type": "bool"
        }
      ],
      "stateMutability": "view",
      "type": "function"
    },
    {
      "inputs": [],
      "name": "name",
      "outputs": [
        {
          "internalType": "string",
          "name": "",
          "type": "string"
        }
      ],
      "stateMutability": "view",
      "type": "function"
    },
    {
      "inputs": [
        {
          "internalType": "address",
          "name": "",
          "type": "address"
        },
        {
          "internalType": "address",
          "name": "",
          "type": "address"
        },
        {
          "internalType": "uint256[]",
          "name": "",
          "type": "uint256[]"
        },
        {
          "internalType": "uint256[]",
          "name": "",
          "type": "uint256[]"
        },
        {
          "internalType": "bytes",
          "name": "",
          "type": "bytes"
        }
      ],
      "name": "onERC1155BatchReceived",
      "outputs": [
        {
          "internalType": "bytes4",
          "name": "",
          "type": "bytes4"
        }
      ],
      "stateMutability": "nonpayable",
      "type": "function"
    },
    {
      "inputs": [
        {
          "internalType": "address",
          "name": "",
          "type": "address"
        },
        {
          "internalType": "address",
          "name": "",
          "type": "address"
        },
        {
          "internalType": "uint256",
          "name": "",
          "type": "uint256"
        },
        {
          "internalType": "uint256",
          "name": "",
          "type": "uint256"
        },
        {
          "internalType": "bytes",
          "name": "",
          "type": "bytes"
        }
      ],
      "name": "onERC1155Received",
      "outputs": [
        {
          "internalType": "bytes4",
          "name": "",
          "type": "bytes4"
        }
      ],
      "stateMutability": "nonpayable",
      "type": "function"
    },
    {
      "inputs": [
        {
          "internalType": "address",
          "name": "",
          "type": "address"
        },
        {
          "internalType": "address",
          "name": "",
          "type": "address"
        },
        {
          "internalType": "uint256",
          "name": "",
          "type": "uint256"
        },
        {
          "internalType": "bytes",
          "name": "",
          "type": "bytes"
        }
      ],
      "name": "onERC721Received",
      "outputs": [
        {
          "internalType": "bytes4",
          "name": "",
          "type": "bytes4"
        }
      ],
      "stateMutability": "nonpayable",
      "type": "function"
    },
    {
      "inputs": [
        {
          "internalType": "uint256",
          "name": "proposalId",
          "type": "uint256"
        }
      ],
      "name": "proposalDeadline",
      "outputs": [
        {
          "internalType": "uint256",
          "name": "",
          "type": "uint256"
        }
      ],
      "stateMutability": "view",
      "type": "function"
    },
    {
      "inputs": [
        {
          "internalType": "uint256",
          "name": "proposalId",
          "type": "uint256"
        }
      ],
      "name": "proposalSnapshot",
      "outputs": [
        {
          "internalType": "uint256",
          "name": "",
          "type": "uint256"
        }
      ],
      "stateMutability": "view",
      "type": "function"
    },
    {
      "inputs": [],
      "name": "proposalThreshold",
      "outputs": [
        {
          "internalType": "uint256",
          "name": "",
          "type": "uint256"
        }
      ],
      "stateMutability": "view",
      "type": "function"
    },
    {
      "inputs": [
        {
          "internalType": "uint256",
          "name": "proposalId",
          "type": "uint256"
        }
      ],
      "name": "proposalVotes",
      "outputs": [
        {
          "internalType": "uint256",
          "name": "againstVotes",
          "type": "uint256"
        },
        {
          "internalType": "uint256",
          "name": "forVotes",
          "type": "uint256"
        },
        {
          "internalType": "uint256",
          "name": "abstainVotes",
          "type": "uint256"
        }
      ],
      "stateMutability": "view",
      "type": "function"
    },
    {
      "inputs": [
        {
          "internalType": "address[]",
          "name": "targets",
          "type": "address[]"
        },
        {
          "internalType": "uint256[]",
          "name": "values",
          "type": "uint256[]"
        },
        {
          "internalType": "bytes[]",
          "name": "calldatas",
          "type": "bytes[]"
        },
        {
          "internalType": "string",
          "name": "description",
          "type": "string"
        }
      ],
      "name": "propose",
      "outputs": [
        {
          "internalType": "uint256",
          "name": "",
          "type": "uint256"
        }
      ],
      "stateMutability": "nonpayable",
      "type": "function"
    },
    {
      "inputs": [
        {
          "internalType": "uint256",
          "name": "blockNumber",
          "type": "uint256"
        }
      ],
      "name": "quorum",
      "outputs": [
        {
          "internalType": "uint256",
          "name": "",
          "type": "uint256"
        }
      ],
      "stateMutability": "view",
      "type": "function"
    },
    {
      "inputs": [],
      "name": "quorumDenominator",
      "outputs": [
        {
          "internalType": "uint256",
          "name": "",
          "type": "uint256"
        }
      ],
      "stateMutability": "view",
      "type": "function"
    },
    {
      "inputs": [
        {
          "internalType": "uint256",
          "name": "blockNumber",
          "type": "uint256"
        }
      ],
      "name": "quorumNumerator",
      "outputs": [
        {
          "internalType": "uint256",
          "name": "",
          "type": "uint256"
        }
      ],
      "stateMutability": "view",
      "type": "function"
    },
    {
      "inputs": [],
      "name": "quorumNumerator",
      "outputs": [
        {
          "internalType": "uint256",
          "name": "",
          "type": "uint256"
        }
      ],
      "stateMutability": "view",
      "type": "function"
    },
    {
      "inputs": [
        {
          "internalType": "address",
          "name": "target",
          "type": "address"
        },
        {
          "internalType": "uint256",
          "name": "value",
          "type": "uint256"
        },
        {
          "internalType": "bytes",
          "name": "data",
          "type": "bytes"
        }
      ],
      "name": "relay",
      "outputs": [],
      "stateMutability": "payable",
      "type": "function"
    },
    {
      "inputs": [
        {
          "internalType": "address",
          "name": "_automation",
          "type": "address"
        }
      ],
      "name": "setAutomation",
      "outputs": [],
      "stateMutability": "nonpayable",
      "type": "function"
    },
    {
      "inputs": [
        {
          "internalType": "uint256",
          "name": "proposalId",
          "type": "uint256"
        }
      ],
      "name": "state",
      "outputs": [
        {
          "internalType": "enum IGovernor.ProposalState",
          "name": "",
          "type": "uint8"
        }
      ],
      "stateMutability": "view",
      "type": "function"
    },
    {
      "inputs": [
        {
          "internalType": "bytes4",
          "name": "interfaceId",
          "type": "bytes4"
        }
      ],
      "name": "supportsInterface",
      "outputs": [
        {
          "internalType": "bool",
          "name": "",
          "type": "bool"
        }
      ],
      "stateMutability": "view",
      "type": "function"
    },
    {
      "inputs": [],
      "name": "token",
      "outputs": [
        {
          "internalType": "contract IVotes",
          "name": "",
          "type": "address"
        }
      ],
      "stateMutability": "view",
      "type": "function"
    },
    {
      "inputs": [
        {
          "internalType": "uint256",
          "name": "newQuorumNumerator",
          "type": "uint256"
        }
      ],
      "name": "updateQuorumNumerator",
      "outputs": [],
      "stateMutability": "nonpayable",
      "type": "function"
    },
    {
      "inputs": [],
      "name": "version",
      "outputs": [
        {
          "internalType": "string",
          "name": "",
          "type": "string"
        }
      ],
      "stateMutability": "view",
      "type": "function"
    },
    {
      "inputs": [],
      "name": "votingDelay",
      "outputs": [
        {
          "internalType": "uint256",
          "name": "",
          "type": "uint256"
        }
      ],
      "stateMutability": "pure",
      "type": "function"
    },
    {
      "inputs": [],
      "name": "votingPeriod",
      "outputs": [
        {
          "internalType": "uint256",
          "name": "",
          "type": "uint256"
        }
      ],
      "stateMutability": "pure",
      "type": "function"
    },
    {
      "stateMutability": "payable",
      "type": "receive"
    }
  ],
  "transactionHash": "0x37efcb45402c1b1ab1d03868ffba73814594e7da6a6453536367a4326ec30898",
  "args": [
    "0x0b0F438BdE1a6FB9c8A2A4DAf48d9a272830918f",
    "0x5672FeBaCABD8cb94d939046ca7f319fB3ed203a"
  ],
  "numDeployments": 1,
  "solcInputHash": "d01903d1582bb4523c7d80a74346dca8",
  "bytecode": "0x610160604052603c600e553480156200001757600080fd5b5060405162005320380380620053208339810160408190526200003a91620005b2565b6004826040518060400160405280600a815260200169476f7665726e616e636560b01b81525080620000716200012460201b60201c565b815160208084019190912082519183019190912060e08290526101008190524660a0527f8b73c3c69bb8fe3d512ecc4cf759cc79239f7b179b0ffacaa9a75d522b39400f620000c28184846200013f565b6080523060c052610120525060009250620000e291508390508262000703565b50506001600160a01b031661014052620000fc816200017c565b50600780546001600160a01b0319166001600160a01b039290921691909117905550620009e0565b6040805180820190915260018152603160f81b602082015290565b600083838346306040516020016200015c959493929190620007e6565b6040516020818303038152906040528051906020012090505b9392505050565b6064811115620001a95760405162461bcd60e51b8152600401620001a0906200083c565b60405180910390fd5b6000620001b56200029e565b90508015801590620001c75750600654155b15620002425760066000016040518060400160405280600063ffffffff1681526020016200020084620002d660201b620015771760201c565b6001600160e01b0390811690915282546001810184556000938452602093849020835194909301519091166401000000000263ffffffff909316929092179101555b6200025d8260066200030660201b620015d31790919060201c565b50507f0553476bf02ef2726e8ce5ced78d63e26e602e4a2257b1f559418e24b4633997818360405162000292929190620008aa565b60405180910390a15050565b60065460009015620002cf57620002c160066200035960201b6200161e1760201c565b6001600160e01b0316905090565b5060055490565b60006001600160e01b03821115620003025760405162461bcd60e51b8152600401620001a09062000910565b5090565b60008062000343846000016200032743620003a660201b6200167b1760201c565b6200033d86620002d660201b620015771760201c565b620003cf565b6001600160e01b03918216969116945092505050565b805460009080156200039d5762000385836200037760018462000938565b600091825260209091200190565b5464010000000090046001600160e01b031662000175565b60009392505050565b600063ffffffff821115620003025760405162461bcd60e51b8152600401620001a09062000992565b825460009081908015620004f5576000620003f1876200037760018562000938565b60408051808201909152905463ffffffff8082168084526401000000009092046001600160e01b031660208401529192509087161015620004465760405162461bcd60e51b8152600401620001a090620009a4565b805163ffffffff8088169116036200049457846200046b886200037760018662000938565b80546001600160e01b03929092166401000000000263ffffffff909216919091179055620004e4565b6040805180820190915263ffffffff80881682526001600160e01b0380881660208085019182528b54600181018d5560008d81529190912094519151909216640100000000029216919091179101555b6020015192508391506200054b9050565b50506040805180820190915263ffffffff80851682526001600160e01b0380851660208085019182528854600181018a5560008a8152918220955192519093166401000000000291909316179201919091559050815b935093915050565b60006001600160a01b0382165b92915050565b6000620005608262000553565b6200057e8162000566565b81146200058a57600080fd5b50565b8051620005608162000573565b6200057e8162000553565b805162000560816200059a565b60008060408385031215620005ca57620005ca600080fd5b6000620005d885856200058d565b9250506020620005eb85828601620005a5565b9150509250929050565b634e487b7160e01b600052604160045260246000fd5b634e487b7160e01b600052602260045260246000fd5b6002810460018216806200063657607f821691505b6020821081036200064b576200064b6200060b565b50919050565b6000620005606200065f8381565b90565b6200066d8362000651565b815460001960089490940293841b1916921b91909117905550565b60006200069781848462000662565b505050565b81811015620006bb57620006b260008262000688565b6001016200069c565b5050565b601f82111562000697576000818152602090206020601f85010481016020851015620006e85750805b620006fc6020601f8601048301826200069c565b5050505050565b81516001600160401b038111156200071f576200071f620005f5565b6200072b825462000621565b62000738828285620006bf565b6020601f8311600181146200076f5760008415620007565750858201515b600019600886021c1981166002860217865550620007cb565b600085815260208120601f198616915b82811015620007a157888501518255602094850194600190920191016200077f565b86831015620007be5784890151600019601f89166008021c191682555b6001600288020188555050505b505050505050565b805b82525050565b620007d58162000553565b60a08101620007f68288620007d3565b620008056020830187620007d3565b620008146040830186620007d3565b620008236060830185620007d3565b620008326080830184620007db565b9695505050505050565b602080825281016200056081604381527f476f7665726e6f72566f74657351756f72756d4672616374696f6e3a2071756f60208201527f72756d4e756d657261746f72206f7665722071756f72756d44656e6f6d696e616040820152623a37b960e91b606082015260800190565b60408101620008ba8285620007d3565b620001756020830184620007d3565b602781526000602082017f53616665436173743a2076616c756520646f65736e27742066697420696e20328152663234206269747360c81b602082015291505b5060400190565b602080825281016200056081620008c9565b634e487b7160e01b600052601160045260246000fd5b8181038181111562000560576200056062000922565b602681526000602082017f53616665436173743a2076616c756520646f65736e27742066697420696e203381526532206269747360d01b6020820152915062000909565b6020808252810162000560816200094e565b602080825281016200056081601781527f436865636b706f696e743a20696e76616c6964206b6579000000000000000000602082015260400190565b60805160a05160c05160e0516101005161012051610140516148d762000a49600039600081816108f401528181612084015261215f01526000612463015260006124a501526000612484015260006123e8015260006124120152600061243c01526148d76000f3fe6080604052600436106102ca5760003560e01c80635678138811610179578063b58131b0116100d6578063dd4e2ba51161008a578063f23a6e6111610064578063f23a6e611461087d578063f8ce560a146108c2578063fc0c546a146108e257600080fd5b8063dd4e2ba5146107e3578063deaaa7cc14610829578063eb9019d41461085d57600080fd5b8063c01f9e37116100bb578063c01f9e3714610790578063c28bc2fa146107b0578063c59057e4146107c357600080fd5b8063b58131b014610737578063bc197c811461074b57600080fd5b80637d5e81e21161012d57806397c3d3341161011257806397c3d334146106ee5780639a802a6d14610702578063a7713a701461072257600080fd5b80637d5e81e2146106b85780638b257989146106d857600080fd5b806360c4247f1161015e57806360c4247f14610658578063730dcc8e146106785780637b3c71d31461069857600080fd5b806356781388146106185780635f398a141461063857600080fd5b80632fe3e2611161022757806343859632116101db57806349f961d6116101c057806349f961d61461055e578063544ffc9c1461059857806354fd4d50146105d257600080fd5b806343859632146104e7578063452115d61461053e57600080fd5b80633bccf4fd1161020c5780633bccf4fd146104785780633e4f49e61461049857806341ec6870146104c557600080fd5b80632fe3e261146104305780633932abb11461046457600080fd5b8063150b7a021161027e5780632656227d116102635780632656227d146103cf5780632b49d425146103e25780632d63f6931461041057600080fd5b8063150b7a021461038d5780631ad85cb5146103ba57600080fd5b806303420181116102af578063034201811461032b57806306f3f9e61461034b57806306fdde031461036b57600080fd5b806301ffc9a7146102d857806302a251a31461030e57600080fd5b366102d357005b005b600080fd5b3480156102e457600080fd5b506102f86102f3366004612c8e565b610923565b6040516103059190612cb9565b60405180910390f35b34801561031a57600080fd5b50600a5b6040516103059190612ccd565b34801561033757600080fd5b5061031e610346366004612e93565b610a54565b34801561035757600080fd5b506102d1610366366004612f6c565b610b2b565b34801561037757600080fd5b50610380610b90565b6040516103059190613001565b34801561039957600080fd5b506103ad6103a8366004613044565b610c22565b60405161030591906130eb565b3480156103c657600080fd5b506102f8610c4c565b61031e6103dd3660046132a3565b610c9a565b3480156103ee57600080fd5b50600854600954600d5461040192919083565b6040516103059392919061334b565b34801561041c57600080fd5b5061031e61042b366004612f6c565b610cda565b34801561043c57600080fd5b5061031e7fb3b3f3b703cd84ce352197dcff232b1b5d3cfb2025ce47cf04742d0651f1af8881565b34801561047057600080fd5b50600161031e565b34801561048457600080fd5b5061031e610493366004613373565b610d13565b3480156104a457600080fd5b506104b86104b3366004612f6c565b610d7b565b6040516103059190613448565b3480156104d157600080fd5b506104da610e74565b6040516103059190613600565b3480156104f357600080fd5b506102f8610502366004613611565b600082815260046020908152604080832073ffffffffffffffffffffffffffffffffffffffff8516845260030190915290205460ff1692915050565b34801561054a57600080fd5b506102d16105593660046132a3565b611076565b34801561056a57600080fd5b5060075461058b9073ffffffffffffffffffffffffffffffffffffffff1681565b604051610305919061364e565b3480156105a457600080fd5b506104016105b3366004612f6c565b6000908152600460205260409020805460018201546002909201549092565b3480156105de57600080fd5b5060408051808201909152600181527f31000000000000000000000000000000000000000000000000000000000000006020820152610380565b34801561062457600080fd5b5061031e61063336600461365c565b6110c7565b34801561064457600080fd5b5061031e61065336600461368f565b6110e8565b34801561066457600080fd5b5061031e610673366004612f6c565b611132565b34801561068457600080fd5b506102d1610693366004613721565b6111f4565b3480156106a457600080fd5b5061031e6106b3366004613742565b611274565b3480156106c457600080fd5b5061031e6106d33660046137b0565b6112c6565b3480156106e457600080fd5b5061031e600e5481565b3480156106fa57600080fd5b50606461031e565b34801561070e57600080fd5b5061031e61071d366004613847565b61137f565b34801561072e57600080fd5b5061031e611396565b34801561074357600080fd5b50600061031e565b34801561075757600080fd5b506103ad6107663660046138b2565b7fbc197c810000000000000000000000000000000000000000000000000000000095945050505050565b34801561079c57600080fd5b5061031e6107ab366004612f6c565b6113d5565b6102d16107be366004613962565b611405565b3480156107cf57600080fd5b5061031e6107de3660046132a3565b6114f3565b3480156107ef57600080fd5b506040805180820190915260208082527f737570706f72743d627261766f2671756f72756d3d666f722c6162737461696e90820152610380565b34801561083557600080fd5b5061031e7f150214d74d59b7d1e90c73fc22ef3d991dd0a76b046543d4d80ab92d2a50328f81565b34801561086957600080fd5b5061031e610878366004613998565b61154b565b34801561088957600080fd5b506103ad6108983660046139cb565b7ff23a6e610000000000000000000000000000000000000000000000000000000095945050505050565b3480156108ce57600080fd5b5061031e6108dd366004612f6c565b61156c565b3480156108ee57600080fd5b506109167f000000000000000000000000000000000000000000000000000000000000000081565b6040516103059190613a81565b60007fffffffff0000000000000000000000000000000000000000000000000000000082167fbf26d8970000000000000000000000000000000000000000000000000000000014806109b657507fffffffff0000000000000000000000000000000000000000000000000000000082167f79dd796f00000000000000000000000000000000000000000000000000000000145b80610a0257507fffffffff0000000000000000000000000000000000000000000000000000000082167f4e2312e000000000000000000000000000000000000000000000000000000000145b80610a4e57507f01ffc9a7000000000000000000000000000000000000000000000000000000007fffffffff000000000000000000000000000000000000000000000000000000008316145b92915050565b600080610ad7610acf7fb3b3f3b703cd84ce352197dcff232b1b5d3cfb2025ce47cf04742d0651f1af888c8c8c8c604051610a90929190613aa2565b60405180910390208b80519060200120604051602001610ab4959493929190613ab8565b604051602081830303815290604052805190602001206116bb565b8686866116ce565b9050610b1d8a828b8b8b8080601f0160208091040260200160405190810160405280939291908181526020018383808284376000920191909152508d92506116f6915050565b9a9950505050505050505050565b333014610b6d576040517f08c379a0000000000000000000000000000000000000000000000000000000008152600401610b6490613b31565b60405180910390fd5b610b84565b80610b7d6002611854565b03610b7257505b610b8d81611911565b50565b606060008054610b9f90613b70565b80601f0160208091040260200160405190810160405280929190818152602001828054610bcb90613b70565b8015610c185780601f10610bed57610100808354040283529160200191610c18565b820191906000526020600020905b815481529060010190602001808311610bfb57829003601f168201915b5050505050905090565b7f150b7a02000000000000000000000000000000000000000000000000000000005b949350505050565b60006004600854610c5c90610d7b565b6007811115610c6d57610c6d6133eb565b1480610c9557506005600854610c8290610d7b565b6007811115610c9357610c936133eb565b145b905090565b60075460009073ffffffffffffffffffffffffffffffffffffffff163314610cc157600080fd5b610ccd85858585611a2b565b5050600854949350505050565b600081815260016020908152604080832081519283019091525467ffffffffffffffff16908190525b67ffffffffffffffff1692915050565b600080610d51610acf7f150214d74d59b7d1e90c73fc22ef3d991dd0a76b046543d4d80ab92d2a50328f8989604051602001610ab493929190613b9c565b9050610d6e87828860405180602001604052806000815250611b4b565b9150505b95945050505050565b6000818152600160205260408120600281015460ff1615610d9f5750600792915050565b6002810154610100900460ff1615610dba5750600292915050565b6000610dc584610cda565b905080600003610e01576040517f08c379a0000000000000000000000000000000000000000000000000000000008152600401610b6490613bf8565b438110610e12575060009392505050565b6000610e1d856113d5565b9050438110610e3157506001949350505050565b610e3a85611b6e565b8015610e59575060008581526004602052604090208054600190910154115b15610e6957506004949350505050565b506003949350505050565b610eb06040518060c001604052806000815260200160008152602001606081526020016060815260200160608152602001600080191681525090565b6040805160c081018252600880548252600954602080840191909152600a80548551818402810184018752818152949593949386019392830182828015610f2d57602002820191906000526020600020905b815473ffffffffffffffffffffffffffffffffffffffff168152600190910190602001808311610f02575b5050505050815260200160038201805480602002602001604051908101604052809291908181526020018280548015610f8557602002820191906000526020600020905b815481526020019060010190808311610f71575b5050505050815260200160048201805480602002602001604051908101604052809291908181526020016000905b8282101561105f578382906000526020600020018054610fd290613b70565b80601f0160208091040260200160405190810160405280929190818152602001828054610ffe90613b70565b801561104b5780601f106110205761010080835404028352916020019161104b565b820191906000526020600020905b81548152906001019060200180831161102e57829003601f168201915b505050505081526020019060010190610fb3565b505050508152602001600582015481525050905090565b61108284848484611ba5565b506000600881815560098290559061109b600a82612bac565b6110a9600383016000612bac565b6110b7600483016000612bca565b6005820160009055505050505050565b600080339050610c4484828560405180602001604052806000815250611b4b565b600080339050610d6e87828888888080601f0160208091040260200160405190810160405280939291908181526020018383808284376000920191909152508a92506116f6915050565b600654600090808203611149575050600554919050565b60006006611158600184613c37565b8154811061116857611168613c4a565b60009182526020918290206040805180820190915291015463ffffffff81168083526401000000009091047bffffffffffffffffffffffffffffffffffffffffffffffffffffffff1692820192909252915084106111e957602001517bffffffffffffffffffffffffffffffffffffffffffffffffffffffff169392505050565b610c44600685611cc8565b33301461122d576040517f08c379a0000000000000000000000000000000000000000000000000000000008152600401610b6490613cad565b600780547fffffffffffffffffffffffff00000000000000000000000000000000000000001673ffffffffffffffffffffffffffffffffffffffff92909216919091179055565b6000803390506112bc86828787878080601f016020809104026020016040519081016040528093929190818152602001838380828437600092019190915250611b4b92505050565b9695505050505050565b600060026008546112d690610d7b565b60078111156112e7576112e76133eb565b148061130f575060036008546112fc90610d7b565b600781111561130d5761130d6133eb565b145b806113365750600760085461132390610d7b565b6007811115611334576113346133eb565b145b61133f57600080fd5b61134b85858585611d8f565b60085581516020830120600d55600e546113664260a5613cbd565b6113709190613cbd565b60095550600854949350505050565b600061138c848484612044565b90505b9392505050565b600654600090156113ce576113ab600661161e565b7bffffffffffffffffffffffffffffffffffffffffffffffffffffffff16905090565b5060055490565b600081815260016020818152604080842081519283019091529091015467ffffffffffffffff1690819052610d03565b33301461143e576040517f08c379a0000000000000000000000000000000000000000000000000000000008152600401610b6490613b31565b611455565b8061144e6002611854565b0361144357505b6000808573ffffffffffffffffffffffffffffffffffffffff16858585604051611480929190613aa2565b60006040518083038185875af1925050503d80600081146114bd576040519150601f19603f3d011682016040523d82523d6000602084013e6114c2565b606091505b50915091506114ea8282604051806060016040528060288152602001614853602891396120fc565b50505050505050565b60008484848460405160200161150c9493929190613da5565b604080517fffffffffffffffffffffffffffffffffffffffffffffffffffffffffffffffe0818403018152919052805160209091012095945050505050565b600061138f838361156760408051602081019091526000815290565b612044565b6000610a4e82612115565b60007bffffffffffffffffffffffffffffffffffffffffffffffffffffffff8211156115cf576040517f08c379a0000000000000000000000000000000000000000000000000000000008152600401610b6490613e4a565b5090565b6000806115f1846115e34361167b565b6115ec86611577565b6121e9565b7bffffffffffffffffffffffffffffffffffffffffffffffffffffffff91821693501690505b9250929050565b805460009080156116725761164683611638600184613c37565b600091825260209091200190565b5464010000000090047bffffffffffffffffffffffffffffffffffffffffffffffffffffffff1661138f565b60009392505050565b600063ffffffff8211156115cf576040517f08c379a0000000000000000000000000000000000000000000000000000000008152600401610b6490613eb4565b6000610a4e6116c86123ce565b836124c9565b60008060006116df878787876124fc565b915091506116ec816125de565b5095945050505050565b600085815260016020819052604082209061171088610d7b565b6007811115611721576117216133eb565b14611758576040517f08c379a0000000000000000000000000000000000000000000000000000000008152600401610b6490613f1e565b6040805160208101909152815467ffffffffffffffff169081905260009061178290889086612044565b905061179188888884886126db565b83516000036117f3578673ffffffffffffffffffffffffffffffffffffffff167fb8e138887d0aa13bab447e82de9d5c1777041ecd21ca36ba824ff1e6c07ddda4898884896040516117e69493929190613f2e565b60405180910390a2610d6e565b8673ffffffffffffffffffffffffffffffffffffffff167fe2babfbac5889a709b63bb7f598b324e08bc5a4fb9ec647fb3cbc9ec07eb87128988848989604051611841959493929190613f68565b60405180910390a2979650505050505050565b600061187c8254600f81810b700100000000000000000000000000000000909204900b131590565b156118b3576040517f3db2a12a00000000000000000000000000000000000000000000000000000000815260040160405180910390fd5b508054600f0b6000818152600180840160205260408220805492905583547fffffffffffffffffffffffffffffffff000000000000000000000000000000001692016fffffffffffffffffffffffffffffffff169190911790915590565b606481111561194c576040517f08c379a0000000000000000000000000000000000000000000000000000000008152600401610b6490613fc1565b6000611956611396565b905080158015906119675750600654155b156119e15760408051808201909152600081526006906020810161198a84611577565b7bffffffffffffffffffffffffffffffffffffffffffffffffffffffff90811690915282546001810184556000938452602093849020835194909301519091166401000000000263ffffffff909316929092179101555b6119ec6006836115d3565b50507f0553476bf02ef2726e8ce5ced78d63e26e602e4a2257b1f559418e24b46339978183604051611a1f929190614048565b60405180910390a15050565b600080611a3a868686866114f3565b90506000611a4782610d7b565b90506004816007811115611a5d57611a5d6133eb565b1480611a7a57506005816007811115611a7857611a786133eb565b145b611ab0576040517f08c379a0000000000000000000000000000000000000000000000000000000008152600401610b64906140bd565b60008281526001602081905260409182902060020180547fffffffffffffffffffffffffffffffffffffffffffffffffffffffffffffff00169091179055517f712ae1383f79ac853f8d882153778e0260ef8f03b504e2866e0593e04d2b291f90611b1c908490612ccd565b60405180910390a1611b318288888888612877565b611b3e828888888861291c565b6116ec8288888888612877565b6000610d7285858585611b6960408051602081019091526000815290565b6116f6565b600081815260046020526040812060028101546001820154611b909190613cbd565b611b9c6108dd85610cda565b11159392505050565b600080611bb4868686866114f3565b90506000611bc182610d7b565b90506002816007811115611bd757611bd76133eb565b14158015611bf757506006816007811115611bf457611bf46133eb565b14155b8015611c1557506007816007811115611c1257611c126133eb565b14155b611c4b576040517f08c379a0000000000000000000000000000000000000000000000000000000008152600401610b6490614101565b6000828152600160205260409081902060020180547fffffffffffffffffffffffffffffffffffffffffffffffffffffffffffff00ff16610100179055517f789cf55be980739dad1d0699b93b58e806b51c9d96619bfa8fe0a28abaa7b30c90611cb6908490612ccd565b60405180910390a15095945050505050565b6000438210611d03576040517f08c379a0000000000000000000000000000000000000000000000000000000008152600401610b6490614143565b6000611d0e8361167b565b84549091506000611d2186848385612a1f565b90508015611d6457611d3886611638600184613c37565b5464010000000090047bffffffffffffffffffffffffffffffffffffffffffffffffffffffff16611d67565b60005b7bffffffffffffffffffffffffffffffffffffffffffffffffffffffff169695505050505050565b600080611da133610878600143613c37565b1015611dd9576040517f08c379a0000000000000000000000000000000000000000000000000000000008152600401610b64906141ad565b6000611dee86868686805190602001206114f3565b90508451865114611e2b576040517f08c379a0000000000000000000000000000000000000000000000000000000008152600401610b6490614217565b8351865114611e66576040517f08c379a0000000000000000000000000000000000000000000000000000000008152600401610b6490614217565b6000865111611ea1576040517f08c379a0000000000000000000000000000000000000000000000000000000008152600401610b649061425b565b6000818152600160209081526040918290208251918201909252815467ffffffffffffffff169081905215611f02576040517f08c379a0000000000000000000000000000000000000000000000000000000008152600401610b64906142c5565b6000611f0e6001612a7d565b611f1743612a7d565b611f2191906142d5565b90506000611f2f600a612a7d565b611f3990836142d5565b83547fffffffffffffffffffffffffffffffffffffffffffffffff00000000000000001667ffffffffffffffff841617845590506001830180547fffffffffffffffffffffffffffffffffffffffffffffffff00000000000000001667ffffffffffffffff83161790557f7d84a6263ae0d98d3329bd7b46bb4e8d6f98cd35a7adb45c274c8b7fd5ebd5e084338b8b8d5167ffffffffffffffff811115611fe257611fe2612d4b565b60405190808252806020026020018201604052801561201557816020015b60608152602001906001900390816120005790505b508c88888e60405161202f99989796959493929190614371565b60405180910390a15091979650505050505050565b6040517f3a46b1a800000000000000000000000000000000000000000000000000000000815260009073ffffffffffffffffffffffffffffffffffffffff7f00000000000000000000000000000000000000000000000000000000000000001690633a46b1a8906120bb9087908790600401614419565b602060405180830381865afa1580156120d8573d6000803e3d6000fd5b505050506040513d601f19601f8201168201806040525081019061138c9190614432565b6060831561210b57508161138f565b61138f8383612ac1565b6000606461212283611132565b6040517f8e539e8c00000000000000000000000000000000000000000000000000000000815273ffffffffffffffffffffffffffffffffffffffff7f00000000000000000000000000000000000000000000000000000000000000001690638e539e8c90612194908790600401612ccd565b602060405180830381865afa1580156121b1573d6000803e3d6000fd5b505050506040513d601f19601f820116820180604052508101906121d59190614432565b6121df9190614453565b610a4e91906144a1565b82546000908190801561235b57600061220787611638600185613c37565b60408051808201909152905463ffffffff8082168084526401000000009092047bffffffffffffffffffffffffffffffffffffffffffffffffffffffff1660208401529192509087161015612288576040517f08c379a0000000000000000000000000000000000000000000000000000000008152600401610b64906144e9565b805163ffffffff8088169116036122e657846122a988611638600186613c37565b80547bffffffffffffffffffffffffffffffffffffffffffffffffffffffff929092166401000000000263ffffffff90921691909117905561234b565b6040805180820190915263ffffffff80881682527bffffffffffffffffffffffffffffffffffffffffffffffffffffffff80881660208085019182528b54600181018d5560008d81529190912094519151909216640100000000029216919091179101555b6020015192508391506123c69050565b50506040805180820190915263ffffffff80851682527bffffffffffffffffffffffffffffffffffffffffffffffffffffffff80851660208085019182528854600181018a5560008a8152918220955192519093166401000000000291909316179201919091559050815b935093915050565b60003073ffffffffffffffffffffffffffffffffffffffff7f00000000000000000000000000000000000000000000000000000000000000001614801561243457507f000000000000000000000000000000000000000000000000000000000000000046145b1561245e57507f000000000000000000000000000000000000000000000000000000000000000090565b610c957f00000000000000000000000000000000000000000000000000000000000000007f00000000000000000000000000000000000000000000000000000000000000007f0000000000000000000000000000000000000000000000000000000000000000612b05565b600082826040516020016124de9291906144f9565b60405160208183030381529060405280519060200120905092915050565b6000807f7fffffffffffffffffffffffffffffff5d576e7357a4501ddfe92f46681b20a083111561253357506000905060036125d5565b6000600187878787604051600081526020016040526040516125589493929190614545565b6020604051602081039080840390855afa15801561257a573d6000803e3d6000fd5b50506040517fffffffffffffffffffffffffffffffffffffffffffffffffffffffffffffffe0015191505073ffffffffffffffffffffffffffffffffffffffff81166125ce576000600192509250506125d5565b9150600090505b94509492505050565b60008160048111156125f2576125f26133eb565b036125fa5750565b600181600481111561260e5761260e6133eb565b03612645576040517f08c379a0000000000000000000000000000000000000000000000000000000008152600401610b64906145ae565b6002816004811115612659576126596133eb565b03612690576040517f08c379a0000000000000000000000000000000000000000000000000000000008152600401610b64906145f2565b60038160048111156126a4576126a46133eb565b03610b8d576040517f08c379a0000000000000000000000000000000000000000000000000000000008152600401610b649061465c565b600085815260046020908152604080832073ffffffffffffffffffffffffffffffffffffffff88168452600381019092529091205460ff161561274a576040517f08c379a0000000000000000000000000000000000000000000000000000000008152600401610b64906146c6565b73ffffffffffffffffffffffffffffffffffffffff85166000908152600382016020526040902080547fffffffffffffffffffffffffffffffffffffffffffffffffffffffffffffff0016600117905560ff84166127c157828160000160008282546127b69190613cbd565b9091555061286f9050565b7fffffffffffffffffffffffffffffffffffffffffffffffffffffffffffffffff60ff8516016127ff57828160010160008282546127b69190613cbd565b7ffffffffffffffffffffffffffffffffffffffffffffffffffffffffffffffffe60ff85160161283d57828160020160008282546127b69190613cbd565b6040517f08c379a0000000000000000000000000000000000000000000000000000000008152600401610b6490614730565b505050505050565b612915565b845181101561286f573073ffffffffffffffffffffffffffffffffffffffff168582815181106128ae576128ae613c4a565b602002602001015173ffffffffffffffffffffffffffffffffffffffff1603612905576129058382815181106128e6576128e6613c4a565b6020026020010151805190602001206002612b3f90919063ffffffff16565b61290e81614740565b905061287c565b5050505050565b600060405180606001604052806027815260200161487b60279139905060005b85518110156114ea5760008087838151811061295a5761295a613c4a565b602002602001015173ffffffffffffffffffffffffffffffffffffffff1687848151811061298a5761298a613c4a565b60200260200101518785815181106129a4576129a4613c4a565b60200260200101516040516129b9919061479a565b60006040518083038185875af1925050503d80600081146129f6576040519150601f19603f3d011682016040523d82523d6000602084013e6129fb565b606091505b5091509150612a0b8282866120fc565b50505080612a1890614740565b905061293c565b60005b81831015612a75576000612a368484612b91565b60008781526020902090915063ffffffff86169082015463ffffffff161115612a6157809250612a6f565b612a6c816001613cbd565b93505b50612a22565b509392505050565b600067ffffffffffffffff8211156115cf576040517f08c379a0000000000000000000000000000000000000000000000000000000008152600401610b6490614800565b815115612ad15781518083602001fd5b806040517f08c379a0000000000000000000000000000000000000000000000000000000008152600401610b649190613001565b60008383834630604051602001612b20959493929190614810565b6040516020818303038152906040528051906020012090509392505050565b815470010000000000000000000000000000000090819004600f0b6000818152600180860160205260409091209390935583546fffffffffffffffffffffffffffffffff908116939091011602179055565b6000612ba060028484186144a1565b61138f90848416613cbd565b5080546000825590600052602060002090810190610b8d9190612be8565b5080546000825590600052602060002090810190610b8d9190612bfd565b5b808211156115cf5760008155600101612be9565b808211156115cf576000612c118282612c1a565b50600101612bfd565b508054612c2690613b70565b6000825580601f10612c36575050565b601f016020900490600052602060002090810190610b8d9190612be8565b7fffffffff0000000000000000000000000000000000000000000000000000000081165b8114610b8d57600080fd5b8035610a4e81612c54565b600060208284031215612ca357612ca3600080fd5b6000610c448484612c83565b8015155b82525050565b60208101610a4e8284612caf565b80612cb3565b60208101610a4e8284612cc7565b80612c78565b8035610a4e81612cdb565b60ff8116612c78565b8035610a4e81612cec565b60008083601f840112612d1557612d15600080fd5b50813567ffffffffffffffff811115612d3057612d30600080fd5b60208301915083600182028301111561161757611617600080fd5b7f4e487b7100000000000000000000000000000000000000000000000000000000600052604160045260246000fd5b7fffffffffffffffffffffffffffffffffffffffffffffffffffffffffffffffe0601f830116810181811067ffffffffffffffff82111715612dbe57612dbe612d4b565b6040525050565b6000612dd060405190565b9050612ddc8282612d7a565b919050565b600067ffffffffffffffff821115612dfb57612dfb612d4b565b7fffffffffffffffffffffffffffffffffffffffffffffffffffffffffffffffe0601f83011660200192915050565b82818337506000910152565b6000612e49612e4484612de1565b612dc5565b905082815260208101848484011115612e6457612e64600080fd5b612a75848285612e2a565b600082601f830112612e8357612e83600080fd5b8135610c44848260208601612e36565b60008060008060008060008060e0898b031215612eb257612eb2600080fd5b6000612ebe8b8b612ce1565b9850506020612ecf8b828c01612cf5565b975050604089013567ffffffffffffffff811115612eef57612eef600080fd5b612efb8b828c01612d00565b9650965050606089013567ffffffffffffffff811115612f1d57612f1d600080fd5b612f298b828c01612e6f565b9450506080612f3a8b828c01612cf5565b93505060a0612f4b8b828c01612ce1565b92505060c0612f5c8b828c01612ce1565b9150509295985092959890939650565b600060208284031215612f8157612f81600080fd5b6000610c448484612ce1565b60005b83811015612fa8578181015183820152602001612f90565b50506000910152565b6000612fbb825190565b808452602084019350612fd2818560208601612f8d565b601f017fffffffffffffffffffffffffffffffffffffffffffffffffffffffffffffffe0169290920192915050565b6020808252810161138f8184612fb1565b600073ffffffffffffffffffffffffffffffffffffffff8216610a4e565b612c7881613012565b8035610a4e81613030565b6000806000806080858703121561305d5761305d600080fd5b60006130698787613039565b945050602061307a87828801613039565b935050604061308b87828801612ce1565b925050606085013567ffffffffffffffff8111156130ab576130ab600080fd5b6130b787828801612e6f565b91505092959194509250565b7fffffffff000000000000000000000000000000000000000000000000000000008116612cb3565b60208101610a4e82846130c3565b600067ffffffffffffffff82111561311357613113612d4b565b5060209081020190565b600061312b612e44846130f9565b8381529050602080820190840283018581111561314a5761314a600080fd5b835b8181101561316e578061315f8882613039565b8452506020928301920161314c565b5050509392505050565b600082601f83011261318c5761318c600080fd5b8135610c4484826020860161311d565b60006131aa612e44846130f9565b838152905060208082019084028301858111156131c9576131c9600080fd5b835b8181101561316e57806131de8882612ce1565b845250602092830192016131cb565b600082601f83011261320157613201600080fd5b8135610c4484826020860161319c565b600061321f612e44846130f9565b8381529050602080820190840283018581111561323e5761323e600080fd5b835b8181101561316e57803567ffffffffffffffff81111561326257613262600080fd5b80860161326f8982612e6f565b8552505060209283019201613240565b600082601f83011261329357613293600080fd5b8135610c44848260208601613211565b600080600080608085870312156132bc576132bc600080fd5b843567ffffffffffffffff8111156132d6576132d6600080fd5b6132e287828801613178565b945050602085013567ffffffffffffffff81111561330257613302600080fd5b61330e878288016131ed565b935050604085013567ffffffffffffffff81111561332e5761332e600080fd5b61333a8782880161327f565b92505060606130b787828801612ce1565b606081016133598286612cc7565b6133666020830185612cc7565b610c446040830184612cc7565b600080600080600060a0868803121561338e5761338e600080fd5b600061339a8888612ce1565b95505060206133ab88828901612cf5565b94505060406133bc88828901612cf5565b93505060606133cd88828901612ce1565b92505060806133de88828901612ce1565b9150509295509295909350565b7f4e487b7100000000000000000000000000000000000000000000000000000000600052602160045260246000fd5b60088110610b8d57610b8d6133eb565b80612ddc8161341a565b6000610a4e8261342a565b612cb381613434565b60208101610a4e828461343f565b612cb381613012565b600061346b8383613456565b505060200190565b600061347d825190565b80845260209384019383018060005b838110156134b15781516134a0888261345f565b97506020830192505060010161348c565b509495945050505050565b600061346b8383612cc7565b60006134d2825190565b80845260209384019383018060005b838110156134b15781516134f588826134bc565b9750602083019250506001016134e1565b600061138f8383612fb1565b600061351c825190565b808452602084019350836020820285016135368560200190565b8060005b8581101561356b57848403895281516135538582613506565b94506020830160209a909a019992505060010161353a565b5091979650505050505050565b805160009060c084019061358c8582612cc7565b50602083015161359f6020860182612cc7565b50604083015184820360408601526135b78282613473565b915050606083015184820360608601526135d182826134c8565b915050608083015184820360808601526135eb8282613512565b91505060a0830151612a7560a0860182612cc7565b6020808252810161138f8184613578565b6000806040838503121561362757613627600080fd5b60006136338585612ce1565b925050602061364485828601613039565b9150509250929050565b60208101610a4e8284613456565b6000806040838503121561367257613672600080fd5b600061367e8585612ce1565b925050602061364485828601612cf5565b6000806000806000608086880312156136aa576136aa600080fd5b60006136b68888612ce1565b95505060206136c788828901612cf5565b945050604086013567ffffffffffffffff8111156136e7576136e7600080fd5b6136f388828901612d00565b9350935050606086013567ffffffffffffffff81111561371557613715600080fd5b6133de88828901612e6f565b60006020828403121561373657613736600080fd5b6000610c448484613039565b6000806000806060858703121561375b5761375b600080fd5b60006137678787612ce1565b945050602061377887828801612cf5565b935050604085013567ffffffffffffffff81111561379857613798600080fd5b6137a487828801612d00565b95989497509550505050565b600080600080608085870312156137c9576137c9600080fd5b843567ffffffffffffffff8111156137e3576137e3600080fd5b6137ef87828801613178565b945050602085013567ffffffffffffffff81111561380f5761380f600080fd5b61381b878288016131ed565b935050604085013567ffffffffffffffff81111561383b5761383b600080fd5b61308b8782880161327f565b60008060006060848603121561385f5761385f600080fd5b600061386b8686613039565b935050602061387c86828701612ce1565b925050604084013567ffffffffffffffff81111561389c5761389c600080fd5b6138a886828701612e6f565b9150509250925092565b600080600080600060a086880312156138cd576138cd600080fd5b60006138d98888613039565b95505060206138ea88828901613039565b945050604086013567ffffffffffffffff81111561390a5761390a600080fd5b613916888289016131ed565b935050606086013567ffffffffffffffff81111561393657613936600080fd5b613942888289016131ed565b925050608086013567ffffffffffffffff81111561371557613715600080fd5b6000806000806060858703121561397b5761397b600080fd5b60006139878787613039565b945050602061377887828801612ce1565b600080604083850312156139ae576139ae600080fd5b60006139ba8585613039565b925050602061364485828601612ce1565b600080600080600060a086880312156139e6576139e6600080fd5b60006139f28888613039565b9550506020613a0388828901613039565b9450506040613a1488828901612ce1565b935050606061394288828901612ce1565b6000610a4e73ffffffffffffffffffffffffffffffffffffffff8316613a49565b90565b73ffffffffffffffffffffffffffffffffffffffff1690565b6000610a4e82613a25565b6000610a4e82613a62565b612cb381613a6d565b60208101610a4e8284613a78565b6000613a9c838584612e2a565b50500190565b6000610c44828486613a8f565b60ff8116612cb3565b60a08101613ac68288612cc7565b613ad36020830187612cc7565b613ae06040830186613aaf565b613aed6060830185612cc7565b6112bc6080830184612cc7565b601881526000602082017f476f7665726e6f723a206f6e6c79476f7665726e616e63650000000000000000815291505b5060200190565b60208082528101610a4e81613afa565b7f4e487b7100000000000000000000000000000000000000000000000000000000600052602260045260246000fd5b600281046001821680613b8457607f821691505b602082108103613b9657613b96613b41565b50919050565b60608101613baa8286612cc7565b613bb76020830185612cc7565b610c446040830184613aaf565b601d81526000602082017f476f7665726e6f723a20756e6b6e6f776e2070726f706f73616c20696400000081529150613b2a565b60208082528101610a4e81613bc4565b7f4e487b7100000000000000000000000000000000000000000000000000000000600052601160045260246000fd5b81810381811115610a4e57610a4e613c08565b7f4e487b7100000000000000000000000000000000000000000000000000000000600052603260045260246000fd5b601b81526000602082017f4f6e6c7920676f7665726e616e63652063616e2061636365737321000000000081529150613b2a565b60208082528101610a4e81613c79565b80820180821115610a4e57610a4e613c08565b6000613cda825190565b80845260209384019383018060005b838110156134b1578151613cfd888261345f565b975060208301925050600101613ce9565b6000613d18825190565b80845260209384019383018060005b838110156134b1578151613d3b88826134bc565b975060208301925050600101613d27565b6000613d56825190565b80845260208401935083602082028501613d708560200190565b8060005b8581101561356b5784840389528151613d8d8582613506565b94506020830160209a909a0199925050600101613d74565b60808082528101613db68187613cd0565b90508181036020830152613dca8186613d0e565b90508181036040830152613dde8185613d4c565b9050610d726060830184612cc7565b602781526000602082017f53616665436173743a2076616c756520646f65736e27742066697420696e203281527f3234206269747300000000000000000000000000000000000000000000000000602082015291505b5060400190565b60208082528101610a4e81613ded565b602681526000602082017f53616665436173743a2076616c756520646f65736e27742066697420696e203381527f322062697473000000000000000000000000000000000000000000000000000060208201529150613e43565b60208082528101610a4e81613e5a565b602381526000602082017f476f7665726e6f723a20766f7465206e6f742063757272656e746c792061637481527f697665000000000000000000000000000000000000000000000000000000000060208201529150613e43565b60208082528101610a4e81613ec4565b60808101613f3c8287612cc7565b613f496020830186613aaf565b613f566040830185612cc7565b81810360608301526112bc8184612fb1565b60a08101613f768288612cc7565b613f836020830187613aaf565b613f906040830186612cc7565b8181036060830152613fa28185612fb1565b90508181036080830152613fb68184612fb1565b979650505050505050565b60208082528101610a4e81604381527f476f7665726e6f72566f74657351756f72756d4672616374696f6e3a2071756f60208201527f72756d4e756d657261746f72206f7665722071756f72756d44656e6f6d696e6160408201527f746f720000000000000000000000000000000000000000000000000000000000606082015260800190565b604081016140568285612cc7565b61138f6020830184612cc7565b602181526000602082017f476f7665726e6f723a2070726f706f73616c206e6f742073756363657373667581527f6c0000000000000000000000000000000000000000000000000000000000000060208201529150613e43565b60208082528101610a4e81614063565b601d81526000602082017f476f7665726e6f723a2070726f706f73616c206e6f742061637469766500000081529150613b2a565b60208082528101610a4e816140cd565b60208082527f436865636b706f696e74733a20626c6f636b206e6f7420796574206d696e656491019081526000613b2a565b60208082528101610a4e81614111565b603181526000602082017f476f7665726e6f723a2070726f706f73657220766f7465732062656c6f77207081527f726f706f73616c207468726573686f6c6400000000000000000000000000000060208201529150613e43565b60208082528101610a4e81614153565b602181526000602082017f476f7665726e6f723a20696e76616c69642070726f706f73616c206c656e677481527f680000000000000000000000000000000000000000000000000000000000000060208201529150613e43565b60208082528101610a4e816141bd565b601881526000602082017f476f7665726e6f723a20656d7074792070726f706f73616c000000000000000081529150613b2a565b60208082528101610a4e81614227565b602181526000602082017f476f7665726e6f723a2070726f706f73616c20616c726561647920657869737481527f730000000000000000000000000000000000000000000000000000000000000060208201529150613e43565b60208082528101610a4e8161426b565b67ffffffffffffffff918216919081169082820190811115610a4e57610a4e613c08565b6000614303825190565b8084526020840193508360208202850161431d8560200190565b8060005b8581101561356b578484038952815161433a8582613506565b94506020830160209a909a0199925050600101614321565b6000610a4e613a4667ffffffffffffffff841681565b612cb381614352565b6101208101614380828c612cc7565b61438d602083018b613456565b818103604083015261439f818a613cd0565b905081810360608301526143b38189613d0e565b905081810360808301526143c781886142f9565b905081810360a08301526143db8187613d4c565b90506143ea60c0830186614368565b6143f760e0830185614368565b81810361010083015261440a8184612fb1565b9b9a5050505050505050505050565b604081016140568285613456565b8051610a4e81612cdb565b60006020828403121561444757614447600080fd5b6000610c448484614427565b81810280821583820485141761446b5761446b613c08565b5092915050565b7f4e487b7100000000000000000000000000000000000000000000000000000000600052601260045260246000fd5b6000826144b0576144b0614472565b500490565b601781526000602082017f436865636b706f696e743a20696e76616c6964206b657900000000000000000081529150613b2a565b60208082528101610a4e816144b5565b7f19010000000000000000000000000000000000000000000000000000000000008152600201600061452b8285612cc7565b60208201915061453b8284612cc7565b5060200192915050565b608081016145538287612cc7565b6145606020830186613aaf565b61456d6040830185612cc7565b610d726060830184612cc7565b601881526000602082017f45434453413a20696e76616c6964207369676e6174757265000000000000000081529150613b2a565b60208082528101610a4e8161457a565b601f81526000602082017f45434453413a20696e76616c6964207369676e6174757265206c656e6774680081529150613b2a565b60208082528101610a4e816145be565b602281526000602082017f45434453413a20696e76616c6964207369676e6174757265202773272076616c81527f756500000000000000000000000000000000000000000000000000000000000060208201529150613e43565b60208082528101610a4e81614602565b602781526000602082017f476f7665726e6f72566f74696e6753696d706c653a20766f746520616c72656181527f647920636173740000000000000000000000000000000000000000000000000060208201529150613e43565b60208082528101610a4e8161466c565b603581526000602082017f476f7665726e6f72566f74696e6753696d706c653a20696e76616c696420766181527f6c756520666f7220656e756d20566f746554797065000000000000000000000060208201529150613e43565b60208082528101610a4e816146d6565b60007fffffffffffffffffffffffffffffffffffffffffffffffffffffffffffffffff820361477157614771613c08565b5060010190565b6000614782825190565b614790818560208601612f8d565b9290920192915050565b600061138f8284614778565b602681526000602082017f53616665436173743a2076616c756520646f65736e27742066697420696e203681527f342062697473000000000000000000000000000000000000000000000000000060208201529150613e43565b60208082528101610a4e816147a6565b60a0810161481e8288612cc7565b61482b6020830187612cc7565b6148386040830186612cc7565b6148456060830185612cc7565b6112bc608083018461345656fe476f7665726e6f723a2072656c617920726576657274656420776974686f7574206d657373616765476f7665726e6f723a2063616c6c20726576657274656420776974686f7574206d657373616765a2646970667358221220fb2fba81b345b85a5ce3cdb319c3a080845daea201560b712410ad720c41b06164736f6c63430008120033",
  "devdoc": {
    "errors": {
      "Empty()": [
        {
          "details": "An operation (e.g. {front}) couldn't be completed due to the queue being empty."
        }
      ]
    },
    "events": {
      "ProposalCanceled(uint256)": {
        "details": "Emitted when a proposal is canceled."
      },
      "ProposalCreated(uint256,address,address[],uint256[],string[],bytes[],uint256,uint256,string)": {
        "details": "Emitted when a proposal is created."
      },
      "ProposalExecuted(uint256)": {
        "details": "Emitted when a proposal is executed."
      },
      "VoteCast(address,uint256,uint8,uint256,string)": {
        "details": "Emitted when a vote is cast without params. Note: `support` values should be seen as buckets. Their interpretation depends on the voting module used."
      },
      "VoteCastWithParams(address,uint256,uint8,uint256,string,bytes)": {
        "details": "Emitted when a vote is cast with params. Note: `support` values should be seen as buckets. Their interpretation depends on the voting module used. `params` are additional encoded parameters. Their intepepretation also depends on the voting module used."
      }
    },
    "kind": "dev",
    "methods": {
      "COUNTING_MODE()": {
        "details": "See {IGovernor-COUNTING_MODE}."
      },
      "castVote(uint256,uint8)": {
        "details": "See {IGovernor-castVote}."
      },
      "castVoteBySig(uint256,uint8,uint8,bytes32,bytes32)": {
        "details": "See {IGovernor-castVoteBySig}."
      },
      "castVoteWithReason(uint256,uint8,string)": {
        "details": "See {IGovernor-castVoteWithReason}."
      },
      "castVoteWithReasonAndParams(uint256,uint8,string,bytes)": {
        "details": "See {IGovernor-castVoteWithReasonAndParams}."
      },
      "castVoteWithReasonAndParamsBySig(uint256,uint8,string,bytes,uint8,bytes32,bytes32)": {
        "details": "See {IGovernor-castVoteWithReasonAndParamsBySig}."
      },
      "getVotes(address,uint256)": {
        "details": "See {IGovernor-getVotes}."
      },
      "getVotesWithParams(address,uint256,bytes)": {
        "details": "See {IGovernor-getVotesWithParams}."
      },
      "hasVoted(uint256,address)": {
        "details": "See {IGovernor-hasVoted}."
      },
      "hashProposal(address[],uint256[],bytes[],bytes32)": {
        "details": "See {IGovernor-hashProposal}. The proposal id is produced by hashing the ABI encoded `targets` array, the `values` array, the `calldatas` array and the descriptionHash (bytes32 which itself is the keccak256 hash of the description string). This proposal id can be produced from the proposal data which is part of the {ProposalCreated} event. It can even be computed in advance, before the proposal is submitted. Note that the chainId and the governor address are not part of the proposal id computation. Consequently, the same proposal (with same operation and same description) will have the same id if submitted on multiple governors across multiple networks. This also means that in order to execute the same operation twice (on the same governor) the proposer will have to change the description in order to avoid proposal id conflicts."
      },
      "name()": {
        "details": "See {IGovernor-name}."
      },
      "onERC1155BatchReceived(address,address,uint256[],uint256[],bytes)": {
        "details": "See {IERC1155Receiver-onERC1155BatchReceived}."
      },
      "onERC1155Received(address,address,uint256,uint256,bytes)": {
        "details": "See {IERC1155Receiver-onERC1155Received}."
      },
      "onERC721Received(address,address,uint256,bytes)": {
        "details": "See {IERC721Receiver-onERC721Received}."
      },
      "proposalDeadline(uint256)": {
        "details": "See {IGovernor-proposalDeadline}."
      },
      "proposalSnapshot(uint256)": {
        "details": "See {IGovernor-proposalSnapshot}."
      },
      "proposalThreshold()": {
        "details": "Part of the Governor Bravo's interface: _\"The number of votes required in order for a voter to become a proposer\"_."
      },
      "proposalVotes(uint256)": {
        "details": "Accessor to the internal vote counts."
      },
      "propose(address[],uint256[],bytes[],string)": {
        "details": "See {IGovernor-propose}."
      },
      "quorumDenominator()": {
        "details": "Returns the quorum denominator. Defaults to 100, but may be overridden."
      },
      "quorumNumerator()": {
        "details": "Returns the current quorum numerator. See {quorumDenominator}."
      },
      "quorumNumerator(uint256)": {
        "details": "Returns the quorum numerator at a specific block number. See {quorumDenominator}."
      },
      "relay(address,uint256,bytes)": {
        "details": "Relays a transaction or function call to an arbitrary target. In cases where the governance executor is some contract other than the governor itself, like when using a timelock, this function can be invoked in a governance proposal to recover tokens or Ether that was sent to the governor contract by mistake. Note that if the executor is simply the governor itself, use of `relay` is redundant."
      },
      "state(uint256)": {
        "details": "See {IGovernor-state}."
      },
      "supportsInterface(bytes4)": {
        "details": "See {IERC165-supportsInterface}."
      },
      "updateQuorumNumerator(uint256)": {
        "details": "Changes the quorum numerator. Emits a {QuorumNumeratorUpdated} event. Requirements: - Must be called through a governance proposal. - New numerator must be smaller or equal to the denominator."
      },
      "version()": {
        "details": "See {IGovernor-version}."
      },
      "votingDelay()": {
        "details": "Delay, in number of block, between the proposal is created and the vote starts. This can be increassed to leave time for users to buy voting power, or delegate it, before the voting of a proposal starts."
      },
      "votingPeriod()": {
        "details": "Delay, in number of blocks, between the vote start and vote ends. NOTE: The {votingDelay} can delay the start of the vote. This must be considered when setting the voting duration compared to the voting delay."
      }
    },
    "version": 1
  },
  "userdoc": {
    "kind": "user",
    "methods": {
      "votingDelay()": {
        "notice": "module:user-config"
      },
      "votingPeriod()": {
        "notice": "module:user-config"
      }
    },
    "version": 1
  },
  "storageLayout": {
    "storage": [
      {
        "astId": 191,
        "contract": "contracts/Governance.sol:Governance",
        "label": "_name",
        "offset": 0,
        "slot": "0",
        "type": "t_string_storage"
      },
      {
        "astId": 196,
        "contract": "contracts/Governance.sol:Governance",
        "label": "_proposals",
        "offset": 0,
        "slot": "1",
        "type": "t_mapping(t_uint256,t_struct(ProposalCore)189_storage)"
      },
      {
        "astId": 199,
        "contract": "contracts/Governance.sol:Governance",
        "label": "_governanceCall",
        "offset": 0,
        "slot": "2",
        "type": "t_struct(Bytes32Deque)9102_storage"
      },
      {
        "astId": 1762,
        "contract": "contracts/Governance.sol:Governance",
        "label": "_proposalVotes",
        "offset": 0,
        "slot": "4",
        "type": "t_mapping(t_uint256,t_struct(ProposalVote)1757_storage)"
      },
      {
        "astId": 2018,
        "contract": "contracts/Governance.sol:Governance",
        "label": "_quorumNumerator",
        "offset": 0,
        "slot": "5",
        "type": "t_uint256"
      },
      {
        "astId": 2021,
        "contract": "contracts/Governance.sol:Governance",
        "label": "_quorumNumeratorHistory",
        "offset": 0,
        "slot": "6",
        "type": "t_struct(History)4280_storage"
      },
      {
        "astId": 9570,
        "contract": "contracts/Governance.sol:Governance",
        "label": "automation",
        "offset": 0,
        "slot": "7",
        "type": "t_address"
      },
      {
        "astId": 9573,
        "contract": "contracts/Governance.sol:Governance",
        "label": "currentProposal",
        "offset": 0,
        "slot": "8",
        "type": "t_struct(CurrentProposal)9856_storage"
      },
      {
        "astId": 9576,
        "contract": "contracts/Governance.sol:Governance",
        "label": "executionDelay",
        "offset": 0,
        "slot": "14",
        "type": "t_uint256"
      }
    ],
    "types": {
      "t_address": {
        "encoding": "inplace",
        "label": "address",
        "numberOfBytes": "20"
      },
      "t_array(t_address)dyn_storage": {
        "base": "t_address",
        "encoding": "dynamic_array",
        "label": "address[]",
        "numberOfBytes": "32"
      },
      "t_array(t_bytes_storage)dyn_storage": {
        "base": "t_bytes_storage",
        "encoding": "dynamic_array",
        "label": "bytes[]",
        "numberOfBytes": "32"
      },
      "t_array(t_struct(Checkpoint)4285_storage)dyn_storage": {
        "base": "t_struct(Checkpoint)4285_storage",
        "encoding": "dynamic_array",
        "label": "struct Checkpoints.Checkpoint[]",
        "numberOfBytes": "32"
      },
      "t_array(t_uint256)dyn_storage": {
        "base": "t_uint256",
        "encoding": "dynamic_array",
        "label": "uint256[]",
        "numberOfBytes": "32"
      },
      "t_bool": {
        "encoding": "inplace",
        "label": "bool",
        "numberOfBytes": "1"
      },
      "t_bytes32": {
        "encoding": "inplace",
        "label": "bytes32",
        "numberOfBytes": "32"
      },
      "t_bytes_storage": {
        "encoding": "bytes",
        "label": "bytes",
        "numberOfBytes": "32"
      },
      "t_int128": {
        "encoding": "inplace",
        "label": "int128",
        "numberOfBytes": "16"
      },
      "t_mapping(t_address,t_bool)": {
        "encoding": "mapping",
        "key": "t_address",
        "label": "mapping(address => bool)",
        "numberOfBytes": "32",
        "value": "t_bool"
      },
      "t_mapping(t_int128,t_bytes32)": {
        "encoding": "mapping",
        "key": "t_int128",
        "label": "mapping(int128 => bytes32)",
        "numberOfBytes": "32",
        "value": "t_bytes32"
      },
      "t_mapping(t_uint256,t_struct(ProposalCore)189_storage)": {
        "encoding": "mapping",
        "key": "t_uint256",
        "label": "mapping(uint256 => struct Governor.ProposalCore)",
        "numberOfBytes": "32",
        "value": "t_struct(ProposalCore)189_storage"
      },
      "t_mapping(t_uint256,t_struct(ProposalVote)1757_storage)": {
        "encoding": "mapping",
        "key": "t_uint256",
        "label": "mapping(uint256 => struct GovernorCountingSimple.ProposalVote)",
        "numberOfBytes": "32",
        "value": "t_struct(ProposalVote)1757_storage"
      },
      "t_string_storage": {
        "encoding": "bytes",
        "label": "string",
        "numberOfBytes": "32"
      },
      "t_struct(BlockNumber)6023_storage": {
        "encoding": "inplace",
        "label": "struct Timers.BlockNumber",
        "members": [
          {
            "astId": 6022,
            "contract": "contracts/Governance.sol:Governance",
            "label": "_deadline",
            "offset": 0,
            "slot": "0",
            "type": "t_uint64"
          }
        ],
        "numberOfBytes": "32"
      },
      "t_struct(Bytes32Deque)9102_storage": {
        "encoding": "inplace",
        "label": "struct DoubleEndedQueue.Bytes32Deque",
        "members": [
          {
            "astId": 9095,
            "contract": "contracts/Governance.sol:Governance",
            "label": "_begin",
            "offset": 0,
            "slot": "0",
            "type": "t_int128"
          },
          {
            "astId": 9097,
            "contract": "contracts/Governance.sol:Governance",
            "label": "_end",
            "offset": 16,
            "slot": "0",
            "type": "t_int128"
          },
          {
            "astId": 9101,
            "contract": "contracts/Governance.sol:Governance",
            "label": "_data",
            "offset": 0,
            "slot": "1",
            "type": "t_mapping(t_int128,t_bytes32)"
          }
        ],
        "numberOfBytes": "64"
      },
      "t_struct(Checkpoint)4285_storage": {
        "encoding": "inplace",
        "label": "struct Checkpoints.Checkpoint",
        "members": [
          {
            "astId": 4282,
            "contract": "contracts/Governance.sol:Governance",
            "label": "_blockNumber",
            "offset": 0,
            "slot": "0",
            "type": "t_uint32"
          },
          {
            "astId": 4284,
            "contract": "contracts/Governance.sol:Governance",
            "label": "_value",
            "offset": 4,
            "slot": "0",
            "type": "t_uint224"
          }
        ],
        "numberOfBytes": "32"
      },
      "t_struct(CurrentProposal)9856_storage": {
        "encoding": "inplace",
        "label": "struct IGovernance.CurrentProposal",
        "members": [
          {
            "astId": 9842,
            "contract": "contracts/Governance.sol:Governance",
            "label": "proposalId",
            "offset": 0,
            "slot": "0",
            "type": "t_uint256"
          },
          {
            "astId": 9844,
            "contract": "contracts/Governance.sol:Governance",
            "label": "executionTime",
            "offset": 0,
            "slot": "1",
            "type": "t_uint256"
          },
          {
            "astId": 9847,
            "contract": "contracts/Governance.sol:Governance",
            "label": "targets",
            "offset": 0,
            "slot": "2",
            "type": "t_array(t_address)dyn_storage"
          },
          {
            "astId": 9850,
            "contract": "contracts/Governance.sol:Governance",
            "label": "values",
            "offset": 0,
            "slot": "3",
            "type": "t_array(t_uint256)dyn_storage"
          },
          {
            "astId": 9853,
            "contract": "contracts/Governance.sol:Governance",
            "label": "calldatas",
            "offset": 0,
            "slot": "4",
            "type": "t_array(t_bytes_storage)dyn_storage"
          },
          {
            "astId": 9855,
            "contract": "contracts/Governance.sol:Governance",
            "label": "description",
            "offset": 0,
            "slot": "5",
            "type": "t_bytes32"
          }
        ],
        "numberOfBytes": "192"
      },
      "t_struct(History)4280_storage": {
        "encoding": "inplace",
        "label": "struct Checkpoints.History",
        "members": [
          {
            "astId": 4279,
            "contract": "contracts/Governance.sol:Governance",
            "label": "_checkpoints",
            "offset": 0,
            "slot": "0",
            "type": "t_array(t_struct(Checkpoint)4285_storage)dyn_storage"
          }
        ],
        "numberOfBytes": "32"
      },
      "t_struct(ProposalCore)189_storage": {
        "encoding": "inplace",
        "label": "struct Governor.ProposalCore",
        "members": [
          {
            "astId": 181,
            "contract": "contracts/Governance.sol:Governance",
            "label": "voteStart",
            "offset": 0,
            "slot": "0",
            "type": "t_struct(BlockNumber)6023_storage"
          },
          {
            "astId": 184,
            "contract": "contracts/Governance.sol:Governance",
            "label": "voteEnd",
            "offset": 0,
            "slot": "1",
            "type": "t_struct(BlockNumber)6023_storage"
          },
          {
            "astId": 186,
            "contract": "contracts/Governance.sol:Governance",
            "label": "executed",
            "offset": 0,
            "slot": "2",
            "type": "t_bool"
          },
          {
            "astId": 188,
            "contract": "contracts/Governance.sol:Governance",
            "label": "canceled",
            "offset": 1,
            "slot": "2",
            "type": "t_bool"
          }
        ],
        "numberOfBytes": "96"
      },
      "t_struct(ProposalVote)1757_storage": {
        "encoding": "inplace",
        "label": "struct GovernorCountingSimple.ProposalVote",
        "members": [
          {
            "astId": 1748,
            "contract": "contracts/Governance.sol:Governance",
            "label": "againstVotes",
            "offset": 0,
            "slot": "0",
            "type": "t_uint256"
          },
          {
            "astId": 1750,
            "contract": "contracts/Governance.sol:Governance",
            "label": "forVotes",
            "offset": 0,
            "slot": "1",
            "type": "t_uint256"
          },
          {
            "astId": 1752,
            "contract": "contracts/Governance.sol:Governance",
            "label": "abstainVotes",
            "offset": 0,
            "slot": "2",
            "type": "t_uint256"
          },
          {
            "astId": 1756,
            "contract": "contracts/Governance.sol:Governance",
            "label": "hasVoted",
            "offset": 0,
            "slot": "3",
            "type": "t_mapping(t_address,t_bool)"
          }
        ],
        "numberOfBytes": "128"
      },
      "t_uint224": {
        "encoding": "inplace",
        "label": "uint224",
        "numberOfBytes": "28"
      },
      "t_uint256": {
        "encoding": "inplace",
        "label": "uint256",
        "numberOfBytes": "32"
      },
      "t_uint32": {
        "encoding": "inplace",
        "label": "uint32",
        "numberOfBytes": "4"
      },
      "t_uint64": {
        "encoding": "inplace",
        "label": "uint64",
        "numberOfBytes": "8"
      }
    }
  }
}